{
  "_format": "hh-sol-artifact-1",
  "contractName": "StrataDeedRWA",
  "sourceName": "contracts/StrataDeedRWA.sol",
  "abi": [
    {
      "inputs": [
        {
          "internalType": "uint256",
          "name": "_fundingCap",
          "type": "uint256"
        },
        {
          "internalType": "address",
          "name": "_initialOwner",
          "type": "address"
        }
      ],
      "stateMutability": "nonpayable",
      "type": "constructor"
    },
    {
      "inputs": [
        {
          "internalType": "address",
          "name": "spender",
          "type": "address"
        },
        {
          "internalType": "uint256",
          "name": "allowance",
          "type": "uint256"
        },
        {
          "internalType": "uint256",
          "name": "needed",
          "type": "uint256"
        }
      ],
      "name": "ERC20InsufficientAllowance",
      "type": "error"
    },
    {
      "inputs": [
        {
          "internalType": "address",
          "name": "sender",
          "type": "address"
        },
        {
          "internalType": "uint256",
          "name": "balance",
          "type": "uint256"
        },
        {
          "internalType": "uint256",
          "name": "needed",
          "type": "uint256"
        }
      ],
      "name": "ERC20InsufficientBalance",
      "type": "error"
    },
    {
      "inputs": [
        {
          "internalType": "address",
          "name": "approver",
          "type": "address"
        }
      ],
      "name": "ERC20InvalidApprover",
      "type": "error"
    },
    {
      "inputs": [
        {
          "internalType": "address",
          "name": "receiver",
          "type": "address"
        }
      ],
      "name": "ERC20InvalidReceiver",
      "type": "error"
    },
    {
      "inputs": [
        {
          "internalType": "address",
          "name": "sender",
          "type": "address"
        }
      ],
      "name": "ERC20InvalidSender",
      "type": "error"
    },
    {
      "inputs": [
        {
          "internalType": "address",
          "name": "spender",
          "type": "address"
        }
      ],
      "name": "ERC20InvalidSpender",
      "type": "error"
    },
    {
      "inputs": [],
      "name": "EnforcedPause",
      "type": "error"
    },
    {
      "inputs": [],
      "name": "ExpectedPause",
      "type": "error"
    },
    {
      "inputs": [
        {
          "internalType": "address",
          "name": "owner",
          "type": "address"
        }
      ],
      "name": "OwnableInvalidOwner",
      "type": "error"
    },
    {
      "inputs": [
        {
          "internalType": "address",
          "name": "account",
          "type": "address"
        }
      ],
      "name": "OwnableUnauthorizedAccount",
      "type": "error"
    },
    {
      "inputs": [],
      "name": "ReentrancyGuardReentrantCall",
      "type": "error"
    },
    {
      "inputs": [
        {
          "internalType": "address",
          "name": "token",
          "type": "address"
        }
      ],
      "name": "SafeERC20FailedOperation",
      "type": "error"
    },
    {
      "anonymous": false,
      "inputs": [
        {
          "indexed": true,
          "internalType": "address",
          "name": "owner",
          "type": "address"
        },
        {
          "indexed": true,
          "internalType": "address",
          "name": "spender",
          "type": "address"
        },
        {
          "indexed": false,
          "internalType": "uint256",
          "name": "value",
          "type": "uint256"
        }
      ],
      "name": "Approval",
      "type": "event"
    },
    {
      "anonymous": false,
      "inputs": [
        {
          "indexed": true,
          "internalType": "address",
          "name": "wallet",
          "type": "address"
        },
        {
          "indexed": true,
          "internalType": "bytes32",
          "name": "credentialHash",
          "type": "bytes32"
        }
      ],
      "name": "CredentialApproved",
      "type": "event"
    },
    {
      "anonymous": false,
      "inputs": [
        {
          "indexed": true,
          "internalType": "bytes32",
          "name": "credentialHash",
          "type": "bytes32"
        },
        {
          "indexed": false,
          "internalType": "string",
          "name": "reason",
          "type": "string"
        }
      ],
      "name": "CredentialRevoked",
      "type": "event"
    },
    {
      "anonymous": false,
      "inputs": [
        {
          "indexed": false,
          "internalType": "uint256",
          "name": "timestamp",
          "type": "uint256"
        },
        {
          "indexed": false,
          "internalType": "string",
          "name": "reason",
          "type": "string"
        },
        {
          "indexed": false,
          "internalType": "uint256",
          "name": "unlockTime",
          "type": "uint256"
        }
      ],
      "name": "EscrowCancellationRequested",
      "type": "event"
    },
    {
      "anonymous": false,
      "inputs": [
        {
          "indexed": false,
          "internalType": "uint256",
          "name": "totalRaised",
          "type": "uint256"
        },
        {
          "indexed": false,
          "internalType": "string",
          "name": "reason",
          "type": "string"
        }
      ],
      "name": "EscrowCancelled",
      "type": "event"
    },
    {
      "anonymous": false,
      "inputs": [
        {
          "indexed": true,
          "internalType": "address",
          "name": "investor",
          "type": "address"
        },
        {
          "indexed": false,
          "internalType": "uint256",
          "name": "amount",
          "type": "uint256"
        }
      ],
      "name": "EscrowDeposit",
      "type": "event"
    },
    {
      "anonymous": false,
      "inputs": [
        {
          "indexed": false,
          "internalType": "uint256",
          "name": "totalRaised",
          "type": "uint256"
        },
        {
          "indexed": false,
          "internalType": "uint256",
          "name": "timestamp",
          "type": "uint256"
        }
      ],
      "name": "EscrowFinalized",
      "type": "event"
    },
    {
      "anonymous": false,
      "inputs": [
        {
          "indexed": false,
          "internalType": "uint256",
          "name": "oldValue",
          "type": "uint256"
        },
        {
          "indexed": false,
          "internalType": "uint256",
          "name": "newValue",
          "type": "uint256"
        }
      ],
      "name": "MinDepositChanged",
      "type": "event"
    },
    {
      "anonymous": false,
      "inputs": [
        {
          "indexed": true,
          "internalType": "address",
          "name": "previousOwner",
          "type": "address"
        },
        {
          "indexed": true,
          "internalType": "address",
          "name": "newOwner",
          "type": "address"
        }
      ],
      "name": "OwnershipTransferred",
      "type": "event"
    },
    {
      "anonymous": false,
      "inputs": [
        {
          "indexed": false,
          "internalType": "address",
          "name": "account",
          "type": "address"
        }
      ],
      "name": "Paused",
      "type": "event"
    },
    {
      "anonymous": false,
      "inputs": [
        {
          "indexed": true,
          "internalType": "address",
          "name": "investor",
          "type": "address"
        },
        {
          "indexed": false,
          "internalType": "uint256",
          "name": "amount",
          "type": "uint256"
        }
      ],
      "name": "RefundClaimed",
      "type": "event"
    },
    {
      "anonymous": false,
      "inputs": [
        {
          "indexed": true,
          "internalType": "address",
          "name": "from",
          "type": "address"
        },
        {
          "indexed": true,
          "internalType": "address",
          "name": "to",
          "type": "address"
        },
        {
          "indexed": false,
          "internalType": "uint256",
          "name": "value",
          "type": "uint256"
        }
      ],
      "name": "Transfer",
      "type": "event"
    },
    {
      "anonymous": false,
      "inputs": [
        {
          "indexed": false,
          "internalType": "address",
          "name": "account",
          "type": "address"
        }
      ],
      "name": "Unpaused",
      "type": "event"
    },
    {
      "anonymous": false,
      "inputs": [
        {
          "indexed": true,
          "internalType": "address",
          "name": "wallet",
          "type": "address"
        }
      ],
      "name": "WalletFrozen",
      "type": "event"
    },
    {
      "anonymous": false,
      "inputs": [
        {
          "indexed": true,
          "internalType": "address",
          "name": "wallet",
          "type": "address"
        }
      ],
      "name": "WalletUnfrozen",
      "type": "event"
    },
    {
      "anonymous": false,
      "inputs": [
        {
          "indexed": true,
          "internalType": "address",
          "name": "investor",
          "type": "address"
        },
        {
          "indexed": false,
          "internalType": "uint256",
          "name": "amount",
          "type": "uint256"
        }
      ],
      "name": "YieldAccrued",
      "type": "event"
    },
    {
      "anonymous": false,
      "inputs": [
        {
          "indexed": false,
          "internalType": "uint256",
          "name": "amount",
          "type": "uint256"
        },
        {
          "indexed": false,
          "internalType": "uint256",
          "name": "newAccYieldPerShare",
          "type": "uint256"
        }
      ],
      "name": "YieldDeposited",
      "type": "event"
    },
    {
      "anonymous": false,
      "inputs": [
        {
          "indexed": true,
          "internalType": "address",
          "name": "investor",
          "type": "address"
        },
        {
          "indexed": false,
          "internalType": "uint256",
          "name": "amount",
          "type": "uint256"
        }
      ],
      "name": "YieldWithdrawn",
      "type": "event"
    },
    {
      "stateMutability": "payable",
      "type": "fallback"
    },
    {
      "inputs": [],
      "name": "PROPERTY_TOKEN_SUPPLY",
      "outputs": [
        {
          "internalType": "uint256",
          "name": "",
          "type": "uint256"
        }
      ],
      "stateMutability": "view",
      "type": "function"
    },
    {
      "inputs": [],
      "name": "accYieldPerShare",
      "outputs": [
        {
          "internalType": "uint256",
          "name": "",
          "type": "uint256"
        }
      ],
      "stateMutability": "view",
      "type": "function"
    },
    {
      "inputs": [
        {
          "internalType": "address",
          "name": "owner",
          "type": "address"
        },
        {
          "internalType": "address",
          "name": "spender",
          "type": "address"
        }
      ],
      "name": "allowance",
      "outputs": [
        {
          "internalType": "uint256",
          "name": "",
          "type": "uint256"
        }
      ],
      "stateMutability": "view",
      "type": "function"
    },
    {
      "inputs": [
        {
          "internalType": "address",
          "name": "spender",
          "type": "address"
        },
        {
          "internalType": "uint256",
          "name": "value",
          "type": "uint256"
        }
      ],
      "name": "approve",
      "outputs": [
        {
          "internalType": "bool",
          "name": "",
          "type": "bool"
        }
      ],
      "stateMutability": "nonpayable",
      "type": "function"
    },
    {
      "inputs": [
        {
          "internalType": "address",
          "name": "account",
          "type": "address"
        }
      ],
      "name": "balanceOf",
      "outputs": [
        {
          "internalType": "uint256",
          "name": "",
          "type": "uint256"
        }
      ],
      "stateMutability": "view",
      "type": "function"
    },
    {
      "inputs": [],
      "name": "claimTokens",
      "outputs": [],
      "stateMutability": "nonpayable",
      "type": "function"
    },
    {
      "inputs": [],
      "name": "claimYield",
      "outputs": [],
      "stateMutability": "nonpayable",
      "type": "function"
    },
    {
      "inputs": [
        {
          "internalType": "address[]",
          "name": "users",
          "type": "address[]"
        }
      ],
      "name": "claimYieldFor",
      "outputs": [],
      "stateMutability": "nonpayable",
      "type": "function"
    },
    {
      "inputs": [],
      "name": "decimals",
      "outputs": [
        {
          "internalType": "uint8",
          "name": "",
          "type": "uint8"
        }
      ],
      "stateMutability": "view",
      "type": "function"
    },
    {
      "inputs": [],
      "name": "depositEscrow",
      "outputs": [],
      "stateMutability": "payable",
      "type": "function"
    },
    {
      "inputs": [],
      "name": "depositYield",
      "outputs": [],
      "stateMutability": "payable",
      "type": "function"
    },
    {
      "inputs": [],
      "name": "escrowCancelPending",
      "outputs": [
        {
          "internalType": "bool",
          "name": "",
          "type": "bool"
        }
      ],
      "stateMutability": "view",
      "type": "function"
    },
    {
      "inputs": [],
      "name": "escrowCancelReason",
      "outputs": [
        {
          "internalType": "string",
          "name": "",
          "type": "string"
        }
      ],
      "stateMutability": "view",
      "type": "function"
    },
    {
      "inputs": [],
      "name": "escrowCancelTimestamp",
      "outputs": [
        {
          "internalType": "uint256",
          "name": "",
          "type": "uint256"
        }
      ],
      "stateMutability": "view",
      "type": "function"
    },
    {
      "inputs": [
        {
          "internalType": "address",
          "name": "",
          "type": "address"
        }
      ],
      "name": "escrowDeposits",
      "outputs": [
        {
          "internalType": "uint256",
          "name": "",
          "type": "uint256"
        }
      ],
      "stateMutability": "view",
      "type": "function"
    },
    {
      "inputs": [],
      "name": "escrowState",
      "outputs": [
        {
          "internalType": "enum StrataDeedRWA.EscrowState",
          "name": "",
          "type": "uint8"
        }
      ],
      "stateMutability": "view",
      "type": "function"
    },
    {
      "inputs": [],
      "name": "executeCancelEscrow",
      "outputs": [],
      "stateMutability": "nonpayable",
      "type": "function"
    },
    {
      "inputs": [],
      "name": "finalizeEscrow",
      "outputs": [],
      "stateMutability": "nonpayable",
      "type": "function"
    },
    {
      "inputs": [
        {
          "internalType": "address",
          "name": "wallet",
          "type": "address"
        }
      ],
      "name": "freezeWallet",
      "outputs": [],
      "stateMutability": "nonpayable",
      "type": "function"
    },
    {
      "inputs": [],
      "name": "fundingCap",
      "outputs": [
        {
          "internalType": "uint256",
          "name": "",
          "type": "uint256"
        }
      ],
      "stateMutability": "view",
      "type": "function"
    },
    {
      "inputs": [],
      "name": "getEscrowInfo",
      "outputs": [
        {
          "internalType": "enum StrataDeedRWA.EscrowState",
          "name": "state",
          "type": "uint8"
        },
        {
          "internalType": "uint256",
          "name": "raised",
          "type": "uint256"
        },
        {
          "internalType": "uint256",
          "name": "cap",
          "type": "uint256"
        },
        {
          "internalType": "uint256",
          "name": "remaining",
          "type": "uint256"
        }
      ],
      "stateMutability": "view",
      "type": "function"
    },
    {
      "inputs": [
        {
          "internalType": "address",
          "name": "investor",
          "type": "address"
        }
      ],
      "name": "getInvestorInfo",
      "outputs": [
        {
          "internalType": "uint256",
          "name": "deposit",
          "type": "uint256"
        },
        {
          "internalType": "uint256",
          "name": "tokens",
          "type": "uint256"
        },
        {
          "internalType": "uint256",
          "name": "pendingYield",
          "type": "uint256"
        },
        {
          "internalType": "bool",
          "name": "compliant",
          "type": "bool"
        }
      ],
      "stateMutability": "view",
      "type": "function"
    },
    {
      "inputs": [
        {
          "internalType": "address",
          "name": "user",
          "type": "address"
        }
      ],
      "name": "getPendingYield",
      "outputs": [
        {
          "internalType": "uint256",
          "name": "",
          "type": "uint256"
        }
      ],
      "stateMutability": "view",
      "type": "function"
    },
    {
      "inputs": [],
      "name": "getTimelockInfo",
      "outputs": [
        {
          "internalType": "bool",
          "name": "pending",
          "type": "bool"
        },
        {
          "internalType": "uint256",
          "name": "unlockTime",
          "type": "uint256"
        },
        {
          "internalType": "string",
          "name": "reason",
          "type": "string"
        }
      ],
      "stateMutability": "view",
      "type": "function"
    },
    {
      "inputs": [
        {
          "internalType": "address",
          "name": "wallet",
          "type": "address"
        }
      ],
      "name": "isCompliant",
      "outputs": [
        {
          "internalType": "bool",
          "name": "",
          "type": "bool"
        }
      ],
      "stateMutability": "view",
      "type": "function"
    },
    {
      "inputs": [
        {
          "internalType": "bytes32",
          "name": "",
          "type": "bytes32"
        }
      ],
      "name": "isCredentialRevoked",
      "outputs": [
        {
          "internalType": "bool",
          "name": "",
          "type": "bool"
        }
      ],
      "stateMutability": "view",
      "type": "function"
    },
    {
      "inputs": [
        {
          "internalType": "address",
          "name": "",
          "type": "address"
        }
      ],
      "name": "isWalletFrozen",
      "outputs": [
        {
          "internalType": "bool",
          "name": "",
          "type": "bool"
        }
      ],
      "stateMutability": "view",
      "type": "function"
    },
    {
      "inputs": [],
      "name": "minDepositForTokens",
      "outputs": [
        {
          "internalType": "uint256",
          "name": "",
          "type": "uint256"
        }
      ],
      "stateMutability": "view",
      "type": "function"
    },
    {
      "inputs": [],
      "name": "name",
      "outputs": [
        {
          "internalType": "string",
          "name": "",
          "type": "string"
        }
      ],
      "stateMutability": "view",
      "type": "function"
    },
    {
      "inputs": [],
      "name": "owner",
      "outputs": [
        {
          "internalType": "address",
          "name": "",
          "type": "address"
        }
      ],
      "stateMutability": "view",
      "type": "function"
    },
    {
      "inputs": [],
      "name": "pauseContract",
      "outputs": [],
      "stateMutability": "nonpayable",
      "type": "function"
    },
    {
      "inputs": [],
      "name": "paused",
      "outputs": [
        {
          "internalType": "bool",
          "name": "",
          "type": "bool"
        }
      ],
      "stateMutability": "view",
      "type": "function"
    },
    {
      "inputs": [
        {
          "internalType": "address",
          "name": "tokenAddress",
          "type": "address"
        },
        {
          "internalType": "uint256",
          "name": "amount",
          "type": "uint256"
        }
      ],
      "name": "recoverERC20",
      "outputs": [],
      "stateMutability": "nonpayable",
      "type": "function"
    },
    {
      "inputs": [
        {
          "internalType": "uint256",
          "name": "amount",
          "type": "uint256"
        }
      ],
      "name": "recoverETH",
      "outputs": [],
      "stateMutability": "nonpayable",
      "type": "function"
    },
    {
      "inputs": [
        {
          "internalType": "address",
          "name": "wallet",
          "type": "address"
        },
        {
          "internalType": "bytes32",
          "name": "credentialHash",
          "type": "bytes32"
        }
      ],
      "name": "registerCredential",
      "outputs": [],
      "stateMutability": "nonpayable",
      "type": "function"
    },
    {
      "inputs": [],
      "name": "renounceOwnership",
      "outputs": [],
      "stateMutability": "nonpayable",
      "type": "function"
    },
    {
      "inputs": [
        {
          "internalType": "string",
          "name": "reason",
          "type": "string"
        }
      ],
      "name": "requestCancelEscrow",
      "outputs": [],
      "stateMutability": "nonpayable",
      "type": "function"
    },
    {
      "inputs": [
        {
          "internalType": "bytes32",
          "name": "credentialHash",
          "type": "bytes32"
        },
        {
          "internalType": "string",
          "name": "reason",
          "type": "string"
        }
      ],
      "name": "revokeCredentialHash",
      "outputs": [],
      "stateMutability": "nonpayable",
      "type": "function"
    },
    {
      "inputs": [
        {
          "internalType": "address",
          "name": "",
          "type": "address"
        }
      ],
      "name": "rewardDebt",
      "outputs": [
        {
          "internalType": "uint256",
          "name": "",
          "type": "uint256"
        }
      ],
      "stateMutability": "view",
      "type": "function"
    },
    {
      "inputs": [
        {
          "internalType": "uint256",
          "name": "newMinDeposit",
          "type": "uint256"
        }
      ],
      "name": "setMinDeposit",
      "outputs": [],
      "stateMutability": "nonpayable",
      "type": "function"
    },
    {
      "inputs": [],
      "name": "symbol",
      "outputs": [
        {
          "internalType": "string",
          "name": "",
          "type": "string"
        }
      ],
      "stateMutability": "view",
      "type": "function"
    },
    {
      "inputs": [],
      "name": "totalEscrowRaised",
      "outputs": [
        {
          "internalType": "uint256",
          "name": "",
          "type": "uint256"
        }
      ],
      "stateMutability": "view",
      "type": "function"
    },
    {
      "inputs": [],
      "name": "totalEscrowRaisedBeforeFinalization",
      "outputs": [
        {
          "internalType": "uint256",
          "name": "",
          "type": "uint256"
        }
      ],
      "stateMutability": "view",
      "type": "function"
    },
    {
      "inputs": [],
      "name": "totalSupply",
      "outputs": [
        {
          "internalType": "uint256",
          "name": "",
          "type": "uint256"
        }
      ],
      "stateMutability": "view",
      "type": "function"
    },
    {
      "inputs": [],
      "name": "totalYieldDistributed",
      "outputs": [
        {
          "internalType": "uint256",
          "name": "",
          "type": "uint256"
        }
      ],
      "stateMutability": "view",
      "type": "function"
    },
    {
      "inputs": [
        {
          "internalType": "address",
          "name": "to",
          "type": "address"
        },
        {
          "internalType": "uint256",
          "name": "value",
          "type": "uint256"
        }
      ],
      "name": "transfer",
      "outputs": [
        {
          "internalType": "bool",
          "name": "",
          "type": "bool"
        }
      ],
      "stateMutability": "nonpayable",
      "type": "function"
    },
    {
      "inputs": [
        {
          "internalType": "address",
          "name": "from",
          "type": "address"
        },
        {
          "internalType": "address",
          "name": "to",
          "type": "address"
        },
        {
          "internalType": "uint256",
          "name": "value",
          "type": "uint256"
        }
      ],
      "name": "transferFrom",
      "outputs": [
        {
          "internalType": "bool",
          "name": "",
          "type": "bool"
        }
      ],
      "stateMutability": "nonpayable",
      "type": "function"
    },
    {
      "inputs": [
        {
          "internalType": "address",
          "name": "newOwner",
          "type": "address"
        }
      ],
      "name": "transferOwnership",
      "outputs": [],
      "stateMutability": "nonpayable",
      "type": "function"
    },
    {
      "inputs": [
        {
          "internalType": "address",
          "name": "wallet",
          "type": "address"
        }
      ],
      "name": "unfreezeWallet",
      "outputs": [],
      "stateMutability": "nonpayable",
      "type": "function"
    },
    {
      "inputs": [],
      "name": "unpauseContract",
      "outputs": [],
      "stateMutability": "nonpayable",
      "type": "function"
    },
    {
      "inputs": [],
      "name": "withdrawRefund",
      "outputs": [],
      "stateMutability": "nonpayable",
      "type": "function"
    },
    {
      "stateMutability": "payable",
      "type": "receive"
    }
  ],
  "bytecode": "0x60a060405266038d7ea4c680006007553480156200001c57600080fd5b506040516200600438038062006004833981810160405281019062000042919062000353565b806040518060400160405280601b81526020017f537472617461446565642050726f706572747920546f6b656e203100000000008152506040518060400160405280600681526020017f534450542d3100000000000000000000000000000000000000000000000000008152508160039081620000c091906200060a565b508060049081620000d291906200060a565b505050600073ffffffffffffffffffffffffffffffffffffffff168173ffffffffffffffffffffffffffffffffffffffff16036200014a5760006040517f1e4fbdf700000000000000000000000000000000000000000000000000000000815260040162000141919062000702565b60405180910390fd5b6200015b81620001e860201b60201c565b50600160068190555060008211620001aa576040517f08c379a0000000000000000000000000000000000000000000000000000000008152600401620001a19062000780565b60405180910390fd5b81608081815250506000600b60006101000a81548160ff02191690836002811115620001db57620001da620007a2565b5b02179055505050620007d1565b6000600560009054906101000a900473ffffffffffffffffffffffffffffffffffffffff16905081600560006101000a81548173ffffffffffffffffffffffffffffffffffffffff021916908373ffffffffffffffffffffffffffffffffffffffff1602179055508173ffffffffffffffffffffffffffffffffffffffff168173ffffffffffffffffffffffffffffffffffffffff167f8be0079c531659141344cd1fd0a4f28419497f9722a3daafe3b4186f6b6457e060405160405180910390a35050565b600080fd5b6000819050919050565b620002c881620002b3565b8114620002d457600080fd5b50565b600081519050620002e881620002bd565b92915050565b600073ffffffffffffffffffffffffffffffffffffffff82169050919050565b60006200031b82620002ee565b9050919050565b6200032d816200030e565b81146200033957600080fd5b50565b6000815190506200034d8162000322565b92915050565b600080604083850312156200036d576200036c620002ae565b5b60006200037d85828601620002d7565b925050602062000390858286016200033c565b9150509250929050565b600081519050919050565b7f4e487b7100000000000000000000000000000000000000000000000000000000600052604160045260246000fd5b7f4e487b7100000000000000000000000000000000000000000000000000000000600052602260045260246000fd5b600060028204905060018216806200041c57607f821691505b602082108103620004325762000431620003d4565b5b50919050565b60008190508160005260206000209050919050565b60006020601f8301049050919050565b600082821b905092915050565b6000600883026200049c7fffffffffffffffffffffffffffffffffffffffffffffffffffffffffffffffff826200045d565b620004a886836200045d565b95508019841693508086168417925050509392505050565b6000819050919050565b6000620004eb620004e5620004df84620002b3565b620004c0565b620002b3565b9050919050565b6000819050919050565b6200050783620004ca565b6200051f6200051682620004f2565b8484546200046a565b825550505050565b600090565b6200053662000527565b62000543818484620004fc565b505050565b5b818110156200056b576200055f6000826200052c565b60018101905062000549565b5050565b601f821115620005ba57620005848162000438565b6200058f846200044d565b810160208510156200059f578190505b620005b7620005ae856200044d565b83018262000548565b50505b505050565b600082821c905092915050565b6000620005df60001984600802620005bf565b1980831691505092915050565b6000620005fa8383620005cc565b9150826002028217905092915050565b62000615826200039a565b67ffffffffffffffff811115620006315762000630620003a5565b5b6200063d825462000403565b6200064a8282856200056f565b600060209050601f8311600181146200068257600084156200066d578287015190505b620006798582620005ec565b865550620006e9565b601f198416620006928662000438565b60005b82811015620006bc5784890151825560018201915060208501945060208101905062000695565b86831015620006dc5784890151620006d8601f891682620005cc565b8355505b6001600288020188555050505b505050505050565b620006fc816200030e565b82525050565b6000602082019050620007196000830184620006f1565b92915050565b600082825260208201905092915050565b7f46756e64696e6720636170206d757374206265203e2030000000000000000000600082015250565b6000620007686017836200071f565b9150620007758262000730565b602082019050919050565b600060208201905081810360008301526200079b8162000759565b9050919050565b7f4e487b7100000000000000000000000000000000000000000000000000000000600052602160045260246000fd5b6080516158026200080260003960008181610f2c01528181610f5001528181611ff40152612bea01526158026000f3fe6080604052600436106102e75760003560e01c806379288c0c11610190578063a2d5b005116100dc578063cba8af9b11610095578063e3b2594f1161006f578063e3b2594f14610b33578063e509b03314610b5e578063f2fde38b14610b89578063fa1c328514610bb257610327565b8063cba8af9b14610aa4578063d333555314610acd578063dd62ed3e14610af657610327565b8063a2d5b005146109a8578063a7096763146109e5578063a9059cbb14610a10578063b33712c514610a4d578063b92e7fed14610a64578063ca2c018414610a7b57610327565b80638fcc9cfb1161014957806397206bd51161012357806397206bd5146108ee57806399e01dc9146109195780639f00116914610942578063a200e5d01461096b57610327565b80638fcc9cfb1461085d57806395583b071461088657806395d89b41146108c357610327565b806379288c0c1461078057806382cde4a3146107a95780638980f11f146107d45780638aa1c0dc146107fd5780638c8e6f5e146108075780638da5cb5b1461083257610327565b8063313ce5671161024f578063537bb137116102085780635e1013a3116101e25780635e1013a3146106d857806360f588b71461070357806370a082311461072c578063715018a61461076957610327565b8063537bb137146106335780635873eb9b146106705780635c975abb146106ad57610327565b8063313ce5671461058e578063406cf229146105b9578063439766ce146105d057806347046891146105e757806348c54b9d146105f1578063518c51041461060857610327565b8063095ea7b3116102a1578063095ea7b31461047a5780630dbcc88e146104b7578063110f8874146104e457806318160ddd146104fb5780631b6701911461052657806323b872dd1461055157610327565b8062cf86681461036257806306a53b091461039f57806306fdde03146103ca5780630707873c146103f5578063085f9e281461043557806309145d7d1461044c57610327565b36610327576040517f08c379a000000000000000000000000000000000000000000000000000000000815260040161031e90613c22565b60405180910390fd5b6040517f08c379a000000000000000000000000000000000000000000000000000000000815260040161035990613c8e565b60405180910390fd5b34801561036e57600080fd5b5061038960048036038101906103849190613cf8565b610bdd565b6040516103969190613d40565b60405180910390f35b3480156103ab57600080fd5b506103b4610bfd565b6040516103c19190613d74565b60405180910390f35b3480156103d657600080fd5b506103df610c03565b6040516103ec9190613e0e565b60405180910390f35b34801561040157600080fd5b5061041c60048036038101906104179190613e8e565b610c95565b60405161042c9493929190613ebb565b60405180910390f35b34801561044157600080fd5b5061044a610d05565b005b34801561045857600080fd5b50610461610f11565b6040516104719493929190613f77565b60405180910390f35b34801561048657600080fd5b506104a1600480360381019061049c9190613fe8565b610f87565b6040516104ae9190613d40565b60405180910390f35b3480156104c357600080fd5b506104cc610faa565b6040516104db93929190614028565b60405180910390f35b3480156104f057600080fd5b506104f961105b565b005b34801561050757600080fd5b506105106112f4565b60405161051d9190613d74565b60405180910390f35b34801561053257600080fd5b5061053b6112fe565b6040516105489190614066565b60405180910390f35b34801561055d57600080fd5b5061057860048036038101906105739190614081565b611311565b6040516105859190613d40565b60405180910390f35b34801561059a57600080fd5b506105a3611340565b6040516105b091906140f0565b60405180910390f35b3480156105c557600080fd5b506105ce611349565b005b3480156105dc57600080fd5b506105e5611576565b005b6105ef611588565b005b3480156105fd57600080fd5b506106066116b1565b005b34801561061457600080fd5b5061061d61190a565b60405161062a9190613d74565b60405180910390f35b34801561063f57600080fd5b5061065a60048036038101906106559190613e8e565b611910565b6040516106679190613d74565b60405180910390f35b34801561067c57600080fd5b5061069760048036038101906106929190613e8e565b611a32565b6040516106a49190613d74565b60405180910390f35b3480156106b957600080fd5b506106c2611a4a565b6040516106cf9190613d40565b60405180910390f35b3480156106e457600080fd5b506106ed611a61565b6040516106fa9190613d74565b60405180910390f35b34801561070f57600080fd5b5061072a60048036038101906107259190613e8e565b611a67565b005b34801561073857600080fd5b50610753600480360381019061074e9190613e8e565b611b0d565b6040516107609190613d74565b60405180910390f35b34801561077557600080fd5b5061077e611b55565b005b34801561078c57600080fd5b506107a760048036038101906107a29190614170565b611b69565b005b3480156107b557600080fd5b506107be611e02565b6040516107cb9190613d74565b60405180910390f35b3480156107e057600080fd5b506107fb60048036038101906107f69190613fe8565b611e08565b005b610805611f23565b005b34801561081357600080fd5b5061081c6121b2565b6040516108299190613d40565b60405180910390f35b34801561083e57600080fd5b506108476121c5565b60405161085491906141cc565b60405180910390f35b34801561086957600080fd5b50610884600480360381019061087f91906141e7565b6121ef565b005b34801561089257600080fd5b506108ad60048036038101906108a89190613e8e565b6122b2565b6040516108ba9190613d40565b60405180910390f35b3480156108cf57600080fd5b506108d86122d2565b6040516108e59190613e0e565b60405180910390f35b3480156108fa57600080fd5b50610903612364565b6040516109109190613d74565b60405180910390f35b34801561092557600080fd5b50610940600480360381019061093b9190614214565b61236a565b005b34801561094e57600080fd5b5061096960048036038101906109649190613e8e565b6124b2565b005b34801561097757600080fd5b50610992600480360381019061098d9190613e8e565b612558565b60405161099f9190613d40565b60405180910390f35b3480156109b457600080fd5b506109cf60048036038101906109ca9190613e8e565b612648565b6040516109dc9190613d74565b60405180910390f35b3480156109f157600080fd5b506109fa612660565b604051610a079190613d74565b60405180910390f35b348015610a1c57600080fd5b50610a376004803603810190610a329190613fe8565b612666565b604051610a449190613d40565b60405180910390f35b348015610a5957600080fd5b50610a62612689565b005b348015610a7057600080fd5b50610a7961269b565b005b348015610a8757600080fd5b50610aa26004803603810190610a9d9190614384565b6128a1565b005b348015610ab057600080fd5b50610acb6004803603810190610ac691906143e0565b612911565b005b348015610ad957600080fd5b50610af46004803603810190610aef91906141e7565b612a5f565b005b348015610b0257600080fd5b50610b1d6004803603810190610b189190614429565b612b61565b604051610b2a9190613d74565b60405180910390f35b348015610b3f57600080fd5b50610b48612be8565b604051610b559190613d74565b60405180910390f35b348015610b6a57600080fd5b50610b73612c0c565b604051610b809190613d74565b60405180910390f35b348015610b9557600080fd5b50610bb06004803603810190610bab9190613e8e565b612c1a565b005b348015610bbe57600080fd5b50610bc7612ca0565b604051610bd49190613e0e565b60405180910390f35b60096020528060005260406000206000915054906101000a900460ff1681565b60075481565b606060038054610c1290614498565b80601f0160208091040260200160405190810160405280929190818152602001828054610c3e90614498565b8015610c8b5780601f10610c6057610100808354040283529160200191610c8b565b820191906000526020600020905b815481529060010190602001808311610c6e57829003601f168201915b5050505050905090565b600080600080600d60008673ffffffffffffffffffffffffffffffffffffffff1673ffffffffffffffffffffffffffffffffffffffff16815260200190815260200160002054610ce486611b0d565b610ced87611910565b610cf688612558565b93509350935093509193509193565b610d0d612d2e565b60006002811115610d2157610d20613f00565b5b600b60009054906101000a900460ff166002811115610d4357610d42613f00565b5b14610d83576040517f08c379a0000000000000000000000000000000000000000000000000000000008152600401610d7a90614515565b60405180910390fd5b601160009054906101000a900460ff16610dd2576040517f08c379a0000000000000000000000000000000000000000000000000000000008152600401610dc990614581565b60405180910390fd5b600f54421015610e17576040517f08c379a0000000000000000000000000000000000000000000000000000000008152600401610e0e906145ed565b60405180910390fd5b60006002811115610e2b57610e2a613f00565b5b600b60009054906101000a900460ff166002811115610e4d57610e4c613f00565b5b14610e8d576040517f08c379a0000000000000000000000000000000000000000000000000000000008152600401610e8490614659565b60405180910390fd5b6002600b60006101000a81548160ff02191690836002811115610eb357610eb2613f00565b5b02179055506000601160006101000a81548160ff0219169083151502179055507fdf5af23a8bfbd700e381c19607d03504d7a5ba1876c669cccd37feace1f5adaa600c546010604051610f07929190614712565b60405180910390a1565b600080600080600b60009054906101000a900460ff16600c547f0000000000000000000000000000000000000000000000000000000000000000600c547f0000000000000000000000000000000000000000000000000000000000000000610f799190614771565b935093509350935090919293565b600080610f92612db5565b9050610f9f818585612dbd565b600191505092915050565b6000806060601160009054906101000a900460ff16600f546010808054610fd090614498565b80601f0160208091040260200160405190810160405280929190818152602001828054610ffc90614498565b80156110495780601f1061101e57610100808354040283529160200191611049565b820191906000526020600020905b81548152906001019060200180831161102c57829003601f168201915b50505050509050925092509250909192565b611063612dcf565b60028081111561107657611075613f00565b5b600b60009054906101000a900460ff16600281111561109857611097613f00565b5b146110d8576040517f08c379a00000000000000000000000000000000000000000000000000000000081526004016110cf906147f1565b60405180910390fd5b336110e281612558565b611121576040517f08c379a00000000000000000000000000000000000000000000000000000000081526004016111189061485d565b60405180910390fd5b6000600d60003373ffffffffffffffffffffffffffffffffffffffff1673ffffffffffffffffffffffffffffffffffffffff168152602001908152602001600020549050600081116111a8576040517f08c379a000000000000000000000000000000000000000000000000000000000815260040161119f906148c9565b60405180910390fd5b6000600d60003373ffffffffffffffffffffffffffffffffffffffff1673ffffffffffffffffffffffffffffffffffffffff1681526020019081526020016000208190555060003373ffffffffffffffffffffffffffffffffffffffff16826040516112139061491a565b60006040518083038185875af1925050503d8060008114611250576040519150601f19603f3d011682016040523d82523d6000602084013e611255565b606091505b5050905080611299576040517f08c379a00000000000000000000000000000000000000000000000000000000081526004016112909061497b565b60405180910390fd5b3373ffffffffffffffffffffffffffffffffffffffff167f358fe4192934d3bf28ae181feda1f4bd08ca67f5e2fad55582cce5eb67304ae9836040516112df9190613d74565b60405180910390a25050506112f2612e15565b565b6000600254905090565b600b60009054906101000a900460ff1681565b60008061131c612db5565b9050611329858285612e1f565b611334858585612eb4565b60019150509392505050565b60006012905090565b611351612dcf565b3361135b81612558565b61139a576040517f08c379a00000000000000000000000000000000000000000000000000000000081526004016113919061485d565b60405180910390fd5b6113a333612fa8565b6000601560003373ffffffffffffffffffffffffffffffffffffffff1673ffffffffffffffffffffffffffffffffffffffff1681526020019081526020016000205490506000811161142a576040517f08c379a0000000000000000000000000000000000000000000000000000000008152600401611421906149e7565b60405180910390fd5b6000601560003373ffffffffffffffffffffffffffffffffffffffff1673ffffffffffffffffffffffffffffffffffffffff1681526020019081526020016000208190555060003373ffffffffffffffffffffffffffffffffffffffff16826040516114959061491a565b60006040518083038185875af1925050503d80600081146114d2576040519150601f19603f3d011682016040523d82523d6000602084013e6114d7565b606091505b505090508061151b576040517f08c379a000000000000000000000000000000000000000000000000000000000815260040161151290614a53565b60405180910390fd5b3373ffffffffffffffffffffffffffffffffffffffff167faed495d70193dd915b96156dc90595c95aa5cc4f6985a2cd79286232d96ae8e2836040516115619190613d74565b60405180910390a2505050611574612e15565b565b61157e612d2e565b611586613135565b565b611590612d2e565b600061159a6112f4565b116115da576040517f08c379a00000000000000000000000000000000000000000000000000000000081526004016115d190614abf565b60405180910390fd5b6000341161161d576040517f08c379a000000000000000000000000000000000000000000000000000000000815260040161161490614b2b565b60405180910390fd5b6116256112f4565b670de0b6b3a7640000346116399190614b4b565b6116439190614bbc565b601260008282546116549190614bed565b92505081905550346014600082825461166d9190614bed565b925050819055507fa248d81b377afe8736fe397f5a9f8f0d7c581e67ff6ae4037df29a672a92133b346012546040516116a7929190614c21565b60405180910390a1565b6116b9612dcf565b600160028111156116cd576116cc613f00565b5b600b60009054906101000a900460ff1660028111156116ef576116ee613f00565b5b1461172f576040517f08c379a000000000000000000000000000000000000000000000000000000000815260040161172690614c96565b60405180910390fd5b3361173981612558565b611778576040517f08c379a000000000000000000000000000000000000000000000000000000000815260040161176f9061485d565b60405180910390fd5b6000600d60003373ffffffffffffffffffffffffffffffffffffffff1673ffffffffffffffffffffffffffffffffffffffff168152602001908152602001600020549050600081116117ff576040517f08c379a00000000000000000000000000000000000000000000000000000000081526004016117f690614d02565b60405180910390fd5b6000600e5411611844576040517f08c379a000000000000000000000000000000000000000000000000000000000815260040161183b90614d6e565b60405180910390fd5b6000600e5469152d02c7e14af68000008361185f9190614b4b565b6118699190614bbc565b9050600081116118ae576040517f08c379a00000000000000000000000000000000000000000000000000000000081526004016118a590614dda565b60405180910390fd5b6000600d60003373ffffffffffffffffffffffffffffffffffffffff1673ffffffffffffffffffffffffffffffffffffffff168152602001908152602001600020819055506118fd3382613198565b505050611908612e15565b565b600f5481565b60008061191c83611b0d565b90506000810361196e57601560008473ffffffffffffffffffffffffffffffffffffffff1673ffffffffffffffffffffffffffffffffffffffff16815260200190815260200160002054915050611a2d565b6000601360008573ffffffffffffffffffffffffffffffffffffffff1673ffffffffffffffffffffffffffffffffffffffff16815260200190815260200160002054670de0b6b3a7640000601254846119c79190614b4b565b6119d19190614bbc565b6119db9190614771565b905080601560008673ffffffffffffffffffffffffffffffffffffffff1673ffffffffffffffffffffffffffffffffffffffff16815260200190815260200160002054611a289190614bed565b925050505b919050565b60136020528060005260406000206000915090505481565b6000600560149054906101000a900460ff16905090565b60125481565b611a6f612d2e565b6000600a60008373ffffffffffffffffffffffffffffffffffffffff1673ffffffffffffffffffffffffffffffffffffffff16815260200190815260200160002060006101000a81548160ff0219169083151502179055508073ffffffffffffffffffffffffffffffffffffffff167fd247131fabb99dc3ba793524f53f05a77eeef38f12b30119655ee340810b121060405160405180910390a250565b60008060008373ffffffffffffffffffffffffffffffffffffffff1673ffffffffffffffffffffffffffffffffffffffff168152602001908152602001600020549050919050565b611b5d612d2e565b611b67600061321a565b565b611b71612d2e565b611b79612dcf565b60005b82829050811015611df557611bb7838383818110611b9d57611b9c614dfa565b5b9050602002016020810190611bb29190613e8e565b612fa8565b600060156000858585818110611bd057611bcf614dfa565b5b9050602002016020810190611be59190613e8e565b73ffffffffffffffffffffffffffffffffffffffff1673ffffffffffffffffffffffffffffffffffffffff1681526020019081526020016000205490506000811115611de157600060156000868686818110611c4457611c43614dfa565b5b9050602002016020810190611c599190613e8e565b73ffffffffffffffffffffffffffffffffffffffff1673ffffffffffffffffffffffffffffffffffffffff168152602001908152602001600020819055506000848484818110611cac57611cab614dfa565b5b9050602002016020810190611cc19190613e8e565b73ffffffffffffffffffffffffffffffffffffffff1682604051611ce49061491a565b60006040518083038185875af1925050503d8060008114611d21576040519150601f19603f3d011682016040523d82523d6000602084013e611d26565b606091505b5050905080611d6a576040517f08c379a0000000000000000000000000000000000000000000000000000000008152600401611d6190614a53565b60405180910390fd5b848484818110611d7d57611d7c614dfa565b5b9050602002016020810190611d929190613e8e565b73ffffffffffffffffffffffffffffffffffffffff167faed495d70193dd915b96156dc90595c95aa5cc4f6985a2cd79286232d96ae8e283604051611dd79190613d74565b60405180910390a2505b508080611ded90614e29565b915050611b7c565b50611dfe612e15565b5050565b600e5481565b611e10612d2e565b600073ffffffffffffffffffffffffffffffffffffffff168273ffffffffffffffffffffffffffffffffffffffff1603611e7f576040517f08c379a0000000000000000000000000000000000000000000000000000000008152600401611e7690614ebd565b60405180910390fd5b3073ffffffffffffffffffffffffffffffffffffffff168273ffffffffffffffffffffffffffffffffffffffff1603611eed576040517f08c379a0000000000000000000000000000000000000000000000000000000008152600401611ee490614f29565b60405180910390fd5b611f1f611ef86121c5565b828473ffffffffffffffffffffffffffffffffffffffff166132e09092919063ffffffff16565b5050565b611f2b612dcf565b60006002811115611f3f57611f3e613f00565b5b600b60009054906101000a900460ff166002811115611f6157611f60613f00565b5b14611fa1576040517f08c379a0000000000000000000000000000000000000000000000000000000008152600401611f9890614515565b60405180910390fd5b33611fab81612558565b611fea576040517f08c379a0000000000000000000000000000000000000000000000000000000008152600401611fe19061485d565b60405180910390fd5b611ff261335f565b7f000000000000000000000000000000000000000000000000000000000000000034600c546120219190614bed565b1115612062576040517f08c379a000000000000000000000000000000000000000000000000000000000815260040161205990614f95565b60405180910390fd5b600034116120a5576040517f08c379a000000000000000000000000000000000000000000000000000000000815260040161209c90615001565b60405180910390fd5b6007543410156120ea576040517f08c379a00000000000000000000000000000000000000000000000000000000081526004016120e19061506d565b60405180910390fd5b34600d60003373ffffffffffffffffffffffffffffffffffffffff1673ffffffffffffffffffffffffffffffffffffffff16815260200190815260200160002060008282546121399190614bed565b9250508190555034600c60008282546121529190614bed565b925050819055503373ffffffffffffffffffffffffffffffffffffffff167fc9030f4276aa9a54d2f20e78ab66876119c07f7bc8bff21fb4762855efdecd2f3460405161219f9190613d74565b60405180910390a2506121b0612e15565b565b601160009054906101000a900460ff1681565b6000600560009054906101000a900473ffffffffffffffffffffffffffffffffffffffff16905090565b6121f7612d2e565b6000600281111561220b5761220a613f00565b5b600b60009054906101000a900460ff16600281111561222d5761222c613f00565b5b1461226d576040517f08c379a000000000000000000000000000000000000000000000000000000000815260040161226490614515565b60405180910390fd5b7fcacd94bd1e7bb1185c816a740d9439bc8eff8159f6f4ffad8d306b5aca2ebd92600754826040516122a0929190614c21565b60405180910390a18060078190555050565b600a6020528060005260406000206000915054906101000a900460ff1681565b6060600480546122e190614498565b80601f016020809104026020016040519081016040528092919081815260200182805461230d90614498565b801561235a5780601f1061232f5761010080835404028352916020019161235a565b820191906000526020600020905b81548152906001019060200180831161233d57829003601f168201915b5050505050905090565b60145481565b612372612d2e565b600073ffffffffffffffffffffffffffffffffffffffff168273ffffffffffffffffffffffffffffffffffffffff16036123e1576040517f08c379a00000000000000000000000000000000000000000000000000000000081526004016123d8906150d9565b60405180910390fd5b6000801b8103612426576040517f08c379a000000000000000000000000000000000000000000000000000000000815260040161241d90615145565b60405180910390fd5b80600860008473ffffffffffffffffffffffffffffffffffffffff1673ffffffffffffffffffffffffffffffffffffffff16815260200190815260200160002081905550808273ffffffffffffffffffffffffffffffffffffffff167fa9c79f7fdecbcadc910a54acb350582c5305208bae1816c550e2ed206ca7b80660405160405180910390a35050565b6124ba612d2e565b6001600a60008373ffffffffffffffffffffffffffffffffffffffff1673ffffffffffffffffffffffffffffffffffffffff16815260200190815260200160002060006101000a81548160ff0219169083151502179055508073ffffffffffffffffffffffffffffffffffffffff167fc9710d20bdbf99ca92a03644a5a8f85ea6badb387ff0abca08eebdfbff50b77f60405160405180910390a250565b6000600a60008373ffffffffffffffffffffffffffffffffffffffff1673ffffffffffffffffffffffffffffffffffffffff16815260200190815260200160002060009054906101000a900460ff16156125b55760009050612643565b6000600860008473ffffffffffffffffffffffffffffffffffffffff1673ffffffffffffffffffffffffffffffffffffffff1681526020019081526020016000205490506000801b810361260d576000915050612643565b6009600082815260200190815260200160002060009054906101000a900460ff161561263d576000915050612643565b60019150505b919050565b600d6020528060005260406000206000915090505481565b600c5481565b600080612671612db5565b905061267e818585612eb4565b600191505092915050565b612691612d2e565b6126996133a0565b565b6126a3612d2e565b6126ab612dcf565b600060028111156126bf576126be613f00565b5b600b60009054906101000a900460ff1660028111156126e1576126e0613f00565b5b14612721576040517f08c379a000000000000000000000000000000000000000000000000000000000815260040161271890614515565b60405180910390fd5b6000600c5411612766576040517f08c379a000000000000000000000000000000000000000000000000000000000815260040161275d906151b1565b60405180910390fd5b6001600b60006101000a81548160ff0219169083600281111561278c5761278b613f00565b5b0217905550600c54600e819055506000600c5490506000600c8190555060006127b36121c5565b73ffffffffffffffffffffffffffffffffffffffff16826040516127d69061491a565b60006040518083038185875af1925050503d8060008114612813576040519150601f19603f3d011682016040523d82523d6000602084013e612818565b606091505b505090508061285c576040517f08c379a00000000000000000000000000000000000000000000000000000000081526004016128539061521d565b60405180910390fd5b7fba737fc715de33eff4584df27bc4f73ce95709c537e32e6930a03d906ebb1c7d824260405161288d929190614c21565b60405180910390a1505061289f612e15565b565b6128a9612d2e565b60016009600084815260200190815260200160002060006101000a81548160ff021916908315150217905550817f8a7dd18f81574794be0ac8390928b9b5988992a941406746e60f37ea696126d7826040516129059190613e0e565b60405180910390a25050565b612919612d2e565b6000600281111561292d5761292c613f00565b5b600b60009054906101000a900460ff16600281111561294f5761294e613f00565b5b1461298f576040517f08c379a000000000000000000000000000000000000000000000000000000000815260040161298690614515565b60405180910390fd5b601160009054906101000a900460ff16156129df576040517f08c379a00000000000000000000000000000000000000000000000000000000081526004016129d690615289565b60405180910390fd5b6001601160006101000a81548160ff0219169083151502179055508060109081612a099190615440565b506202a30042612a199190614bed565b600f819055507f9b1271142b9081f06199378d5950b21a579d277be3fc68908d852b43a5cca0f24282600f54604051612a5493929190615512565b60405180910390a150565b612a67612d2e565b80471015612aaa576040517f08c379a0000000000000000000000000000000000000000000000000000000008152600401612aa19061559c565b60405180910390fd5b6000612ab46121c5565b73ffffffffffffffffffffffffffffffffffffffff1682604051612ad79061491a565b60006040518083038185875af1925050503d8060008114612b14576040519150601f19603f3d011682016040523d82523d6000602084013e612b19565b606091505b5050905080612b5d576040517f08c379a0000000000000000000000000000000000000000000000000000000008152600401612b5490615608565b60405180910390fd5b5050565b6000600160008473ffffffffffffffffffffffffffffffffffffffff1673ffffffffffffffffffffffffffffffffffffffff16815260200190815260200160002060008373ffffffffffffffffffffffffffffffffffffffff1673ffffffffffffffffffffffffffffffffffffffff16815260200190815260200160002054905092915050565b7f000000000000000000000000000000000000000000000000000000000000000081565b69152d02c7e14af680000081565b612c22612d2e565b600073ffffffffffffffffffffffffffffffffffffffff168173ffffffffffffffffffffffffffffffffffffffff1603612c945760006040517f1e4fbdf7000000000000000000000000000000000000000000000000000000008152600401612c8b91906141cc565b60405180910390fd5b612c9d8161321a565b50565b60108054612cad90614498565b80601f0160208091040260200160405190810160405280929190818152602001828054612cd990614498565b8015612d265780601f10612cfb57610100808354040283529160200191612d26565b820191906000526020600020905b815481529060010190602001808311612d0957829003601f168201915b505050505081565b612d36612db5565b73ffffffffffffffffffffffffffffffffffffffff16612d546121c5565b73ffffffffffffffffffffffffffffffffffffffff1614612db357612d77612db5565b6040517f118cdaa7000000000000000000000000000000000000000000000000000000008152600401612daa91906141cc565b60405180910390fd5b565b600033905090565b612dca8383836001613403565b505050565b600260065403612e0b576040517f3ee5aeb500000000000000000000000000000000000000000000000000000000815260040160405180910390fd5b6002600681905550565b6001600681905550565b6000612e2b8484612b61565b90507fffffffffffffffffffffffffffffffffffffffffffffffffffffffffffffffff811015612eae5781811015612e9e578281836040517ffb8f41b2000000000000000000000000000000000000000000000000000000008152600401612e9593929190615628565b60405180910390fd5b612ead84848484036000613403565b5b50505050565b600073ffffffffffffffffffffffffffffffffffffffff168373ffffffffffffffffffffffffffffffffffffffff1603612f265760006040517f96c6fd1e000000000000000000000000000000000000000000000000000000008152600401612f1d91906141cc565b60405180910390fd5b600073ffffffffffffffffffffffffffffffffffffffff168273ffffffffffffffffffffffffffffffffffffffff1603612f985760006040517fec442f05000000000000000000000000000000000000000000000000000000008152600401612f8f91906141cc565b60405180910390fd5b612fa38383836135da565b505050565b6000612fb382611b0d565b905060008103612fc35750613132565b6000670de0b6b3a764000060125483612fdc9190614b4b565b612fe69190614bbc565b90506000601360008573ffffffffffffffffffffffffffffffffffffffff1673ffffffffffffffffffffffffffffffffffffffff1681526020019081526020016000205490508082111561312e57600081836130429190614771565b905082601360008773ffffffffffffffffffffffffffffffffffffffff1673ffffffffffffffffffffffffffffffffffffffff1681526020019081526020016000208190555080601560008773ffffffffffffffffffffffffffffffffffffffff1673ffffffffffffffffffffffffffffffffffffffff16815260200190815260200160002060008282546130d79190614bed565b925050819055508473ffffffffffffffffffffffffffffffffffffffff167f8258a59886e03bdb78e5ddb9566b8ad4957a1747e8d15fd0b4a24274f35cf317826040516131249190613d74565b60405180910390a2505b5050505b50565b61313d61335f565b6001600560146101000a81548160ff0219169083151502179055507f62e78cea01bee320cd4e420270b5ea74000d11b0c9f74754ebdbfc544b05a258613181612db5565b60405161318e91906141cc565b60405180910390a1565b600073ffffffffffffffffffffffffffffffffffffffff168273ffffffffffffffffffffffffffffffffffffffff160361320a5760006040517fec442f0500000000000000000000000000000000000000000000000000000000815260040161320191906141cc565b60405180910390fd5b613216600083836135da565b5050565b6000600560009054906101000a900473ffffffffffffffffffffffffffffffffffffffff16905081600560006101000a81548173ffffffffffffffffffffffffffffffffffffffff021916908373ffffffffffffffffffffffffffffffffffffffff1602179055508173ffffffffffffffffffffffffffffffffffffffff168173ffffffffffffffffffffffffffffffffffffffff167f8be0079c531659141344cd1fd0a4f28419497f9722a3daafe3b4186f6b6457e060405160405180910390a35050565b61335a838473ffffffffffffffffffffffffffffffffffffffff1663a9059cbb858560405160240161331392919061565f565b604051602081830303815290604052915060e01b6020820180517bffffffffffffffffffffffffffffffffffffffffffffffffffffffff8381831617835250505050613898565b505050565b613367611a4a565b1561339e576040517fd93c066500000000000000000000000000000000000000000000000000000000815260040160405180910390fd5b565b6133a861393a565b6000600560146101000a81548160ff0219169083151502179055507f5db9ee0a495bf2e6ff9c91a7834c1ba4fdd244a5e8aa4e537bd38aeae4b073aa6133ec612db5565b6040516133f991906141cc565b60405180910390a1565b600073ffffffffffffffffffffffffffffffffffffffff168473ffffffffffffffffffffffffffffffffffffffff16036134755760006040517fe602df0500000000000000000000000000000000000000000000000000000000815260040161346c91906141cc565b60405180910390fd5b600073ffffffffffffffffffffffffffffffffffffffff168373ffffffffffffffffffffffffffffffffffffffff16036134e75760006040517f94280d620000000000000000000000000000000000000000000000000000000081526004016134de91906141cc565b60405180910390fd5b81600160008673ffffffffffffffffffffffffffffffffffffffff1673ffffffffffffffffffffffffffffffffffffffff16815260200190815260200160002060008573ffffffffffffffffffffffffffffffffffffffff1673ffffffffffffffffffffffffffffffffffffffff1681526020019081526020016000208190555080156135d4578273ffffffffffffffffffffffffffffffffffffffff168473ffffffffffffffffffffffffffffffffffffffff167f8c5be1e5ebec7d5bd14f71427d1e84f3dd0314c0f7b2291e5b200ac8c7c3b925846040516135cb9190613d74565b60405180910390a35b50505050565b600073ffffffffffffffffffffffffffffffffffffffff168373ffffffffffffffffffffffffffffffffffffffff16141580156136445750600073ffffffffffffffffffffffffffffffffffffffff168273ffffffffffffffffffffffffffffffffffffffff1614155b1561372257613651611a4a565b15613691576040517f08c379a0000000000000000000000000000000000000000000000000000000008152600401613688906156d4565b60405180910390fd5b61369a83612558565b6136d9576040517f08c379a00000000000000000000000000000000000000000000000000000000081526004016136d090615740565b60405180910390fd5b6136e282612558565b613721576040517f08c379a0000000000000000000000000000000000000000000000000000000008152600401613718906157ac565b60405180910390fd5b5b600061372d84611b0d565b9050600061373a84611b0d565b9050670de0b6b3a7640000601254836137539190614b4b565b61375d9190614bbc565b601360008773ffffffffffffffffffffffffffffffffffffffff1673ffffffffffffffffffffffffffffffffffffffff16815260200190815260200160002081905550670de0b6b3a7640000601254826137b79190614b4b565b6137c19190614bbc565b601360008673ffffffffffffffffffffffffffffffffffffffff1673ffffffffffffffffffffffffffffffffffffffff1681526020019081526020016000208190555061380f85858561397a565b600073ffffffffffffffffffffffffffffffffffffffff168573ffffffffffffffffffffffffffffffffffffffff16141580156138795750600073ffffffffffffffffffffffffffffffffffffffff168473ffffffffffffffffffffffffffffffffffffffff1614155b156138915761388785612fa8565b61389084612fa8565b5b5050505050565b600080602060008451602086016000885af1806138bb576040513d6000823e3d81fd5b3d9250600051915050600082146138d65760018114156138f2565b60008473ffffffffffffffffffffffffffffffffffffffff163b145b1561393457836040517f5274afe700000000000000000000000000000000000000000000000000000000815260040161392b91906141cc565b60405180910390fd5b50505050565b613942611a4a565b613978576040517f8dfc202b00000000000000000000000000000000000000000000000000000000815260040160405180910390fd5b565b600073ffffffffffffffffffffffffffffffffffffffff168373ffffffffffffffffffffffffffffffffffffffff16036139cc5780600260008282546139c09190614bed565b92505081905550613a9f565b60008060008573ffffffffffffffffffffffffffffffffffffffff1673ffffffffffffffffffffffffffffffffffffffff16815260200190815260200160002054905081811015613a58578381836040517fe450d38c000000000000000000000000000000000000000000000000000000008152600401613a4f93929190615628565b60405180910390fd5b8181036000808673ffffffffffffffffffffffffffffffffffffffff1673ffffffffffffffffffffffffffffffffffffffff16815260200190815260200160002081905550505b600073ffffffffffffffffffffffffffffffffffffffff168273ffffffffffffffffffffffffffffffffffffffff1603613ae85780600260008282540392505081905550613b35565b806000808473ffffffffffffffffffffffffffffffffffffffff1673ffffffffffffffffffffffffffffffffffffffff168152602001908152602001600020600082825401925050819055505b8173ffffffffffffffffffffffffffffffffffffffff168373ffffffffffffffffffffffffffffffffffffffff167fddf252ad1be2c89b69c2b068fc378daa952ba7f163c4a11628f55a4df523b3ef83604051613b929190613d74565b60405180910390a3505050565b600082825260208201905092915050565b7f557365206465706f7369745969656c642829206f72206465706f73697445736360008201527f726f772829000000000000000000000000000000000000000000000000000000602082015250565b6000613c0c602583613b9f565b9150613c1782613bb0565b604082019050919050565b60006020820190508181036000830152613c3b81613bff565b9050919050565b7f496e76616c69642063616c6c0000000000000000000000000000000000000000600082015250565b6000613c78600c83613b9f565b9150613c8382613c42565b602082019050919050565b60006020820190508181036000830152613ca781613c6b565b9050919050565b6000604051905090565b600080fd5b600080fd5b6000819050919050565b613cd581613cc2565b8114613ce057600080fd5b50565b600081359050613cf281613ccc565b92915050565b600060208284031215613d0e57613d0d613cb8565b5b6000613d1c84828501613ce3565b91505092915050565b60008115159050919050565b613d3a81613d25565b82525050565b6000602082019050613d556000830184613d31565b92915050565b6000819050919050565b613d6e81613d5b565b82525050565b6000602082019050613d896000830184613d65565b92915050565b600081519050919050565b60005b83811015613db8578082015181840152602081019050613d9d565b60008484015250505050565b6000601f19601f8301169050919050565b6000613de082613d8f565b613dea8185613b9f565b9350613dfa818560208601613d9a565b613e0381613dc4565b840191505092915050565b60006020820190508181036000830152613e288184613dd5565b905092915050565b600073ffffffffffffffffffffffffffffffffffffffff82169050919050565b6000613e5b82613e30565b9050919050565b613e6b81613e50565b8114613e7657600080fd5b50565b600081359050613e8881613e62565b92915050565b600060208284031215613ea457613ea3613cb8565b5b6000613eb284828501613e79565b91505092915050565b6000608082019050613ed06000830187613d65565b613edd6020830186613d65565b613eea6040830185613d65565b613ef76060830184613d31565b95945050505050565b7f4e487b7100000000000000000000000000000000000000000000000000000000600052602160045260246000fd5b60038110613f4057613f3f613f00565b5b50565b6000819050613f5182613f2f565b919050565b6000613f6182613f43565b9050919050565b613f7181613f56565b82525050565b6000608082019050613f8c6000830187613f68565b613f996020830186613d65565b613fa66040830185613d65565b613fb36060830184613d65565b95945050505050565b613fc581613d5b565b8114613fd057600080fd5b50565b600081359050613fe281613fbc565b92915050565b60008060408385031215613fff57613ffe613cb8565b5b600061400d85828601613e79565b925050602061401e85828601613fd3565b9150509250929050565b600060608201905061403d6000830186613d31565b61404a6020830185613d65565b818103604083015261405c8184613dd5565b9050949350505050565b600060208201905061407b6000830184613f68565b92915050565b60008060006060848603121561409a57614099613cb8565b5b60006140a886828701613e79565b93505060206140b986828701613e79565b92505060406140ca86828701613fd3565b9150509250925092565b600060ff82169050919050565b6140ea816140d4565b82525050565b600060208201905061410560008301846140e1565b92915050565b600080fd5b600080fd5b600080fd5b60008083601f8401126141305761412f61410b565b5b8235905067ffffffffffffffff81111561414d5761414c614110565b5b60208301915083602082028301111561416957614168614115565b5b9250929050565b6000806020838503121561418757614186613cb8565b5b600083013567ffffffffffffffff8111156141a5576141a4613cbd565b5b6141b18582860161411a565b92509250509250929050565b6141c681613e50565b82525050565b60006020820190506141e160008301846141bd565b92915050565b6000602082840312156141fd576141fc613cb8565b5b600061420b84828501613fd3565b91505092915050565b6000806040838503121561422b5761422a613cb8565b5b600061423985828601613e79565b925050602061424a85828601613ce3565b9150509250929050565b600080fd5b7f4e487b7100000000000000000000000000000000000000000000000000000000600052604160045260246000fd5b61429182613dc4565b810181811067ffffffffffffffff821117156142b0576142af614259565b5b80604052505050565b60006142c3613cae565b90506142cf8282614288565b919050565b600067ffffffffffffffff8211156142ef576142ee614259565b5b6142f882613dc4565b9050602081019050919050565b82818337600083830152505050565b6000614327614322846142d4565b6142b9565b90508281526020810184848401111561434357614342614254565b5b61434e848285614305565b509392505050565b600082601f83011261436b5761436a61410b565b5b813561437b848260208601614314565b91505092915050565b6000806040838503121561439b5761439a613cb8565b5b60006143a985828601613ce3565b925050602083013567ffffffffffffffff8111156143ca576143c9613cbd565b5b6143d685828601614356565b9150509250929050565b6000602082840312156143f6576143f5613cb8565b5b600082013567ffffffffffffffff81111561441457614413613cbd565b5b61442084828501614356565b91505092915050565b600080604083850312156144405761443f613cb8565b5b600061444e85828601613e79565b925050602061445f85828601613e79565b9150509250929050565b7f4e487b7100000000000000000000000000000000000000000000000000000000600052602260045260246000fd5b600060028204905060018216806144b057607f821691505b6020821081036144c3576144c2614469565b5b50919050565b7f457363726f77206e6f7420696e2066756e64696e672073746174650000000000600082015250565b60006144ff601b83613b9f565b915061450a826144c9565b602082019050919050565b6000602082019050818103600083015261452e816144f2565b9050919050565b7f4e6f2070656e64696e672063616e63656c6c6174696f6e000000000000000000600082015250565b600061456b601783613b9f565b915061457682614535565b602082019050919050565b6000602082019050818103600083015261459a8161455e565b9050919050565b7f54696d656c6f636b206e6f742065787069726564000000000000000000000000600082015250565b60006145d7601483613b9f565b91506145e2826145a1565b602082019050919050565b60006020820190508181036000830152614606816145ca565b9050919050565b7f496e76616c696420737461746500000000000000000000000000000000000000600082015250565b6000614643600d83613b9f565b915061464e8261460d565b602082019050919050565b6000602082019050818103600083015261467281614636565b9050919050565b60008190508160005260206000209050919050565b6000815461469b81614498565b6146a58186613b9f565b945060018216600081146146c057600181146146d657614709565b60ff198316865281151560200286019350614709565b6146df85614679565b60005b83811015614701578154818901526001820191506020810190506146e2565b808801955050505b50505092915050565b60006040820190506147276000830185613d65565b8181036020830152614739818461468e565b90509392505050565b7f4e487b7100000000000000000000000000000000000000000000000000000000600052601160045260246000fd5b600061477c82613d5b565b915061478783613d5b565b925082820390508181111561479f5761479e614742565b5b92915050565b7f457363726f77206e6f742063616e63656c6c6564000000000000000000000000600082015250565b60006147db601483613b9f565b91506147e6826147a5565b602082019050919050565b6000602082019050818103600083015261480a816147ce565b9050919050565b7f41646472657373206e6f7420636f6d706c69616e740000000000000000000000600082015250565b6000614847601583613b9f565b915061485282614811565b602082019050919050565b600060208201905081810360008301526148768161483a565b9050919050565b7f4e6f7468696e6720746f20726566756e64000000000000000000000000000000600082015250565b60006148b3601183613b9f565b91506148be8261487d565b602082019050919050565b600060208201905081810360008301526148e2816148a6565b9050919050565b600081905092915050565b50565b60006149046000836148e9565b915061490f826148f4565b600082019050919050565b6000614925826148f7565b9150819050919050565b7f526566756e64206661696c656400000000000000000000000000000000000000600082015250565b6000614965600d83613b9f565b91506149708261492f565b602082019050919050565b6000602082019050818103600083015261499481614958565b9050919050565b7f4e6f207969656c6420746f20636c61696d000000000000000000000000000000600082015250565b60006149d1601183613b9f565b91506149dc8261499b565b602082019050919050565b60006020820190508181036000830152614a00816149c4565b9050919050565b7f5969656c6420636c61696d206661696c65640000000000000000000000000000600082015250565b6000614a3d601283613b9f565b9150614a4882614a07565b602082019050919050565b60006020820190508181036000830152614a6c81614a30565b9050919050565b7f4e6f20746f6b656e73206d696e74656420796574000000000000000000000000600082015250565b6000614aa9601483613b9f565b9150614ab482614a73565b602082019050919050565b60006020820190508181036000830152614ad881614a9c565b9050919050565b7f5a65726f207969656c6400000000000000000000000000000000000000000000600082015250565b6000614b15600a83613b9f565b9150614b2082614adf565b602082019050919050565b60006020820190508181036000830152614b4481614b08565b9050919050565b6000614b5682613d5b565b9150614b6183613d5b565b9250828202614b6f81613d5b565b91508282048414831517614b8657614b85614742565b5b5092915050565b7f4e487b7100000000000000000000000000000000000000000000000000000000600052601260045260246000fd5b6000614bc782613d5b565b9150614bd283613d5b565b925082614be257614be1614b8d565b5b828204905092915050565b6000614bf882613d5b565b9150614c0383613d5b565b9250828201905080821115614c1b57614c1a614742565b5b92915050565b6000604082019050614c366000830185613d65565b614c436020830184613d65565b9392505050565b7f457363726f77206e6f742066696e616c697a6564000000000000000000000000600082015250565b6000614c80601483613b9f565b9150614c8b82614c4a565b602082019050919050565b60006020820190508181036000830152614caf81614c73565b9050919050565b7f4e6f206465706f73697473000000000000000000000000000000000000000000600082015250565b6000614cec600b83613b9f565b9150614cf782614cb6565b602082019050919050565b60006020820190508181036000830152614d1b81614cdf565b9050919050565b7f496e76616c696420746f74616c20726169736564000000000000000000000000600082015250565b6000614d58601483613b9f565b9150614d6382614d22565b602082019050919050565b60006020820190508181036000830152614d8781614d4b565b9050919050565b7f4465706f73697420746f6f20736d616c6c20666f7220616e7920746f6b656e73600082015250565b6000614dc4602083613b9f565b9150614dcf82614d8e565b602082019050919050565b60006020820190508181036000830152614df381614db7565b9050919050565b7f4e487b7100000000000000000000000000000000000000000000000000000000600052603260045260246000fd5b6000614e3482613d5b565b91507fffffffffffffffffffffffffffffffffffffffffffffffffffffffffffffffff8203614e6657614e65614742565b5b600182019050919050565b7f496e76616c696420746f6b656e00000000000000000000000000000000000000600082015250565b6000614ea7600d83613b9f565b9150614eb282614e71565b602082019050919050565b60006020820190508181036000830152614ed681614e9a565b9050919050565b7f43616e6e6f74207265636f7665722070726f706572747920746f6b656e000000600082015250565b6000614f13601d83613b9f565b9150614f1e82614edd565b602082019050919050565b60006020820190508181036000830152614f4281614f06565b9050919050565b7f4361702065786365656465640000000000000000000000000000000000000000600082015250565b6000614f7f600c83613b9f565b9150614f8a82614f49565b602082019050919050565b60006020820190508181036000830152614fae81614f72565b9050919050565b7f5a65726f206465706f7369740000000000000000000000000000000000000000600082015250565b6000614feb600c83613b9f565b9150614ff682614fb5565b602082019050919050565b6000602082019050818103600083015261501a81614fde565b9050919050565b7f4465706f7369742062656c6f77206d696e696d756d20666f7220746f6b656e73600082015250565b6000615057602083613b9f565b915061506282615021565b602082019050919050565b600060208201905081810360008301526150868161504a565b9050919050565b7f496e76616c69642077616c6c6574000000000000000000000000000000000000600082015250565b60006150c3600e83613b9f565b91506150ce8261508d565b602082019050919050565b600060208201905081810360008301526150f2816150b6565b9050919050565b7f496e76616c696420686173680000000000000000000000000000000000000000600082015250565b600061512f600c83613b9f565b915061513a826150f9565b602082019050919050565b6000602082019050818103600083015261515e81615122565b9050919050565b7f4e6f2066756e6473207261697365640000000000000000000000000000000000600082015250565b600061519b600f83613b9f565b91506151a682615165565b602082019050919050565b600060208201905081810360008301526151ca8161518e565b9050919050565b7f46756e642072656c65617365206661696c656400000000000000000000000000600082015250565b6000615207601383613b9f565b9150615212826151d1565b602082019050919050565b60006020820190508181036000830152615236816151fa565b9050919050565b7f43616e63656c6c6174696f6e20616c72656164792070656e64696e6700000000600082015250565b6000615273601c83613b9f565b915061527e8261523d565b602082019050919050565b600060208201905081810360008301526152a281615266565b9050919050565b60006020601f8301049050919050565b600082821b905092915050565b6000600883026152f67fffffffffffffffffffffffffffffffffffffffffffffffffffffffffffffffff826152b9565b61530086836152b9565b95508019841693508086168417925050509392505050565b6000819050919050565b600061533d61533861533384613d5b565b615318565b613d5b565b9050919050565b6000819050919050565b61535783615322565b61536b61536382615344565b8484546152c6565b825550505050565b600090565b615380615373565b61538b81848461534e565b505050565b5b818110156153af576153a4600082615378565b600181019050615391565b5050565b601f8211156153f4576153c581614679565b6153ce846152a9565b810160208510156153dd578190505b6153f16153e9856152a9565b830182615390565b50505b505050565b600082821c905092915050565b6000615417600019846008026153f9565b1980831691505092915050565b60006154308383615406565b9150826002028217905092915050565b61544982613d8f565b67ffffffffffffffff81111561546257615461614259565b5b61546c8254614498565b6154778282856153b3565b600060209050601f8311600181146154aa5760008415615498578287015190505b6154a28582615424565b86555061550a565b601f1984166154b886614679565b60005b828110156154e0578489015182556001820191506020850194506020810190506154bb565b868310156154fd57848901516154f9601f891682615406565b8355505b6001600288020188555050505b505050505050565b60006060820190506155276000830186613d65565b81810360208301526155398185613dd5565b90506155486040830184613d65565b949350505050565b7f496e73756666696369656e742062616c616e6365000000000000000000000000600082015250565b6000615586601483613b9f565b915061559182615550565b602082019050919050565b600060208201905081810360008301526155b581615579565b9050919050565b7f455448207265636f76657279206661696c656400000000000000000000000000600082015250565b60006155f2601383613b9f565b91506155fd826155bc565b602082019050919050565b60006020820190508181036000830152615621816155e5565b9050919050565b600060608201905061563d60008301866141bd565b61564a6020830185613d65565b6156576040830184613d65565b949350505050565b600060408201905061567460008301856141bd565b6156816020830184613d65565b9392505050565b7f436f6e7472616374206973207061757365640000000000000000000000000000600082015250565b60006156be601283613b9f565b91506156c982615688565b602082019050919050565b600060208201905081810360008301526156ed816156b1565b9050919050565b7f53656e646572206e6f7420636f6d706c69616e74000000000000000000000000600082015250565b600061572a601483613b9f565b9150615735826156f4565b602082019050919050565b600060208201905081810360008301526157598161571d565b9050919050565b7f5265636569766572206e6f7420636f6d706c69616e7400000000000000000000600082015250565b6000615796601683613b9f565b91506157a182615760565b602082019050919050565b600060208201905081810360008301526157c581615789565b905091905056fea26469706673582212205256fbda89223c2267f6fdda1d2997b668b884f836b940264049e6e18dc4911864736f6c63430008140033",
  "linkReferences": {},
  "deployedLinkReferences": {}
}