{
  "_format": "hh-sol-artifact-1",
  "contractName": "StrataDeedRWA",
  "sourceName": "contracts/StrataDeedRWA.sol",
  "abi": [
    {
      "inputs": [
        {
          "internalType": "uint256",
          "name": "_fundingCap",
          "type": "uint256"
        },
        {
          "internalType": "address",
          "name": "_initialOwner",
          "type": "address"
        }
      ],
      "stateMutability": "nonpayable",
      "type": "constructor"
    },
    {
      "inputs": [
        {
          "internalType": "address",
          "name": "spender",
          "type": "address"
        },
        {
          "internalType": "uint256",
          "name": "allowance",
          "type": "uint256"
        },
        {
          "internalType": "uint256",
          "name": "needed",
          "type": "uint256"
        }
      ],
      "name": "ERC20InsufficientAllowance",
      "type": "error"
    },
    {
      "inputs": [
        {
          "internalType": "address",
          "name": "sender",
          "type": "address"
        },
        {
          "internalType": "uint256",
          "name": "balance",
          "type": "uint256"
        },
        {
          "internalType": "uint256",
          "name": "needed",
          "type": "uint256"
        }
      ],
      "name": "ERC20InsufficientBalance",
      "type": "error"
    },
    {
      "inputs": [
        {
          "internalType": "address",
          "name": "approver",
          "type": "address"
        }
      ],
      "name": "ERC20InvalidApprover",
      "type": "error"
    },
    {
      "inputs": [
        {
          "internalType": "address",
          "name": "receiver",
          "type": "address"
        }
      ],
      "name": "ERC20InvalidReceiver",
      "type": "error"
    },
    {
      "inputs": [
        {
          "internalType": "address",
          "name": "sender",
          "type": "address"
        }
      ],
      "name": "ERC20InvalidSender",
      "type": "error"
    },
    {
      "inputs": [
        {
          "internalType": "address",
          "name": "spender",
          "type": "address"
        }
      ],
      "name": "ERC20InvalidSpender",
      "type": "error"
    },
    {
      "inputs": [],
      "name": "EnforcedPause",
      "type": "error"
    },
    {
      "inputs": [],
      "name": "ExpectedPause",
      "type": "error"
    },
    {
      "inputs": [
        {
          "internalType": "address",
          "name": "owner",
          "type": "address"
        }
      ],
      "name": "OwnableInvalidOwner",
      "type": "error"
    },
    {
      "inputs": [
        {
          "internalType": "address",
          "name": "account",
          "type": "address"
        }
      ],
      "name": "OwnableUnauthorizedAccount",
      "type": "error"
    },
    {
      "inputs": [],
      "name": "ReentrancyGuardReentrantCall",
      "type": "error"
    },
    {
      "inputs": [
        {
          "internalType": "address",
          "name": "token",
          "type": "address"
        }
      ],
      "name": "SafeERC20FailedOperation",
      "type": "error"
    },
    {
      "anonymous": false,
      "inputs": [
        {
          "indexed": true,
          "internalType": "address",
          "name": "owner",
          "type": "address"
        },
        {
          "indexed": true,
          "internalType": "address",
          "name": "spender",
          "type": "address"
        },
        {
          "indexed": false,
          "internalType": "uint256",
          "name": "value",
          "type": "uint256"
        }
      ],
      "name": "Approval",
      "type": "event"
    },
    {
      "anonymous": false,
      "inputs": [
        {
          "indexed": true,
          "internalType": "address",
          "name": "wallet",
          "type": "address"
        },
        {
          "indexed": true,
          "internalType": "bytes32",
          "name": "credentialHash",
          "type": "bytes32"
        }
      ],
      "name": "CredentialApproved",
      "type": "event"
    },
    {
      "anonymous": false,
      "inputs": [
        {
          "indexed": true,
          "internalType": "bytes32",
          "name": "credentialHash",
          "type": "bytes32"
        },
        {
          "indexed": false,
          "internalType": "string",
          "name": "reason",
          "type": "string"
        }
      ],
      "name": "CredentialRevoked",
      "type": "event"
    },
    {
      "anonymous": false,
      "inputs": [
        {
          "indexed": false,
          "internalType": "uint256",
          "name": "timestamp",
          "type": "uint256"
        },
        {
          "indexed": false,
          "internalType": "string",
          "name": "reason",
          "type": "string"
        },
        {
          "indexed": false,
          "internalType": "uint256",
          "name": "unlockTime",
          "type": "uint256"
        }
      ],
      "name": "EscrowCancellationRequested",
      "type": "event"
    },
    {
      "anonymous": false,
      "inputs": [
        {
          "indexed": false,
          "internalType": "uint256",
          "name": "totalRaised",
          "type": "uint256"
        },
        {
          "indexed": false,
          "internalType": "string",
          "name": "reason",
          "type": "string"
        }
      ],
      "name": "EscrowCancelled",
      "type": "event"
    },
    {
      "anonymous": false,
      "inputs": [
        {
          "indexed": true,
          "internalType": "address",
          "name": "investor",
          "type": "address"
        },
        {
          "indexed": false,
          "internalType": "uint256",
          "name": "amount",
          "type": "uint256"
        }
      ],
      "name": "EscrowDeposit",
      "type": "event"
    },
    {
      "anonymous": false,
      "inputs": [
        {
          "indexed": false,
          "internalType": "uint256",
          "name": "totalRaised",
          "type": "uint256"
        },
        {
          "indexed": false,
          "internalType": "uint256",
          "name": "timestamp",
          "type": "uint256"
        }
      ],
      "name": "EscrowFinalized",
      "type": "event"
    },
    {
      "anonymous": false,
      "inputs": [
        {
          "indexed": false,
          "internalType": "uint256",
          "name": "oldValue",
          "type": "uint256"
        },
        {
          "indexed": false,
          "internalType": "uint256",
          "name": "newValue",
          "type": "uint256"
        }
      ],
      "name": "MinDepositChanged",
      "type": "event"
    },
    {
      "anonymous": false,
      "inputs": [
        {
          "indexed": true,
          "internalType": "address",
          "name": "previousOwner",
          "type": "address"
        },
        {
          "indexed": true,
          "internalType": "address",
          "name": "newOwner",
          "type": "address"
        }
      ],
      "name": "OwnershipTransferred",
      "type": "event"
    },
    {
      "anonymous": false,
      "inputs": [
        {
          "indexed": false,
          "internalType": "address",
          "name": "account",
          "type": "address"
        }
      ],
      "name": "Paused",
      "type": "event"
    },
    {
      "anonymous": false,
      "inputs": [
        {
          "indexed": true,
          "internalType": "address",
          "name": "investor",
          "type": "address"
        },
        {
          "indexed": false,
          "internalType": "uint256",
          "name": "amount",
          "type": "uint256"
        }
      ],
      "name": "RefundClaimed",
      "type": "event"
    },
    {
      "anonymous": false,
      "inputs": [
        {
          "indexed": true,
          "internalType": "address",
          "name": "from",
          "type": "address"
        },
        {
          "indexed": true,
          "internalType": "address",
          "name": "to",
          "type": "address"
        },
        {
          "indexed": false,
          "internalType": "uint256",
          "name": "value",
          "type": "uint256"
        }
      ],
      "name": "Transfer",
      "type": "event"
    },
    {
      "anonymous": false,
      "inputs": [
        {
          "indexed": false,
          "internalType": "address",
          "name": "account",
          "type": "address"
        }
      ],
      "name": "Unpaused",
      "type": "event"
    },
    {
      "anonymous": false,
      "inputs": [
        {
          "indexed": true,
          "internalType": "address",
          "name": "wallet",
          "type": "address"
        }
      ],
      "name": "WalletFrozen",
      "type": "event"
    },
    {
      "anonymous": false,
      "inputs": [
        {
          "indexed": true,
          "internalType": "address",
          "name": "wallet",
          "type": "address"
        }
      ],
      "name": "WalletUnfrozen",
      "type": "event"
    },
    {
      "anonymous": false,
      "inputs": [
        {
          "indexed": true,
          "internalType": "address",
          "name": "investor",
          "type": "address"
        },
        {
          "indexed": false,
          "internalType": "uint256",
          "name": "amount",
          "type": "uint256"
        }
      ],
      "name": "YieldAccrued",
      "type": "event"
    },
    {
      "anonymous": false,
      "inputs": [
        {
          "indexed": false,
          "internalType": "uint256",
          "name": "amount",
          "type": "uint256"
        },
        {
          "indexed": false,
          "internalType": "uint256",
          "name": "newAccYieldPerShare",
          "type": "uint256"
        }
      ],
      "name": "YieldDeposited",
      "type": "event"
    },
    {
      "anonymous": false,
      "inputs": [
        {
          "indexed": true,
          "internalType": "address",
          "name": "investor",
          "type": "address"
        },
        {
          "indexed": false,
          "internalType": "uint256",
          "name": "amount",
          "type": "uint256"
        }
      ],
      "name": "YieldWithdrawn",
      "type": "event"
    },
    {
      "stateMutability": "payable",
      "type": "fallback"
    },
    {
      "inputs": [],
      "name": "PROPERTY_TOKEN_SUPPLY",
      "outputs": [
        {
          "internalType": "uint256",
          "name": "",
          "type": "uint256"
        }
      ],
      "stateMutability": "view",
      "type": "function"
    },
    {
      "inputs": [],
      "name": "accYieldPerShare",
      "outputs": [
        {
          "internalType": "uint256",
          "name": "",
          "type": "uint256"
        }
      ],
      "stateMutability": "view",
      "type": "function"
    },
    {
      "inputs": [
        {
          "internalType": "address",
          "name": "owner",
          "type": "address"
        },
        {
          "internalType": "address",
          "name": "spender",
          "type": "address"
        }
      ],
      "name": "allowance",
      "outputs": [
        {
          "internalType": "uint256",
          "name": "",
          "type": "uint256"
        }
      ],
      "stateMutability": "view",
      "type": "function"
    },
    {
      "inputs": [
        {
          "internalType": "address",
          "name": "spender",
          "type": "address"
        },
        {
          "internalType": "uint256",
          "name": "value",
          "type": "uint256"
        }
      ],
      "name": "approve",
      "outputs": [
        {
          "internalType": "bool",
          "name": "",
          "type": "bool"
        }
      ],
      "stateMutability": "nonpayable",
      "type": "function"
    },
    {
      "inputs": [
        {
          "internalType": "address",
          "name": "account",
          "type": "address"
        }
      ],
      "name": "balanceOf",
      "outputs": [
        {
          "internalType": "uint256",
          "name": "",
          "type": "uint256"
        }
      ],
      "stateMutability": "view",
      "type": "function"
    },
    {
      "inputs": [],
      "name": "claimTokens",
      "outputs": [],
      "stateMutability": "nonpayable",
      "type": "function"
    },
    {
      "inputs": [],
      "name": "claimYield",
      "outputs": [],
      "stateMutability": "nonpayable",
      "type": "function"
    },
    {
      "inputs": [
        {
          "internalType": "address[]",
          "name": "users",
          "type": "address[]"
        }
      ],
      "name": "claimYieldFor",
      "outputs": [],
      "stateMutability": "nonpayable",
      "type": "function"
    },
    {
      "inputs": [],
      "name": "decimals",
      "outputs": [
        {
          "internalType": "uint8",
          "name": "",
          "type": "uint8"
        }
      ],
      "stateMutability": "view",
      "type": "function"
    },
    {
      "inputs": [],
      "name": "depositEscrow",
      "outputs": [],
      "stateMutability": "payable",
      "type": "function"
    },
    {
      "inputs": [],
      "name": "depositYield",
      "outputs": [],
      "stateMutability": "payable",
      "type": "function"
    },
    {
      "inputs": [],
      "name": "escrowCancelPending",
      "outputs": [
        {
          "internalType": "bool",
          "name": "",
          "type": "bool"
        }
      ],
      "stateMutability": "view",
      "type": "function"
    },
    {
      "inputs": [],
      "name": "escrowCancelReason",
      "outputs": [
        {
          "internalType": "string",
          "name": "",
          "type": "string"
        }
      ],
      "stateMutability": "view",
      "type": "function"
    },
    {
      "inputs": [],
      "name": "escrowCancelTimestamp",
      "outputs": [
        {
          "internalType": "uint256",
          "name": "",
          "type": "uint256"
        }
      ],
      "stateMutability": "view",
      "type": "function"
    },
    {
      "inputs": [
        {
          "internalType": "address",
          "name": "",
          "type": "address"
        }
      ],
      "name": "escrowDeposits",
      "outputs": [
        {
          "internalType": "uint256",
          "name": "",
          "type": "uint256"
        }
      ],
      "stateMutability": "view",
      "type": "function"
    },
    {
      "inputs": [],
      "name": "escrowState",
      "outputs": [
        {
          "internalType": "enum StrataDeedRWA.EscrowState",
          "name": "",
          "type": "uint8"
        }
      ],
      "stateMutability": "view",
      "type": "function"
    },
    {
      "inputs": [],
      "name": "executeCancelEscrow",
      "outputs": [],
      "stateMutability": "nonpayable",
      "type": "function"
    },
    {
      "inputs": [],
      "name": "finalizeEscrow",
      "outputs": [],
      "stateMutability": "nonpayable",
      "type": "function"
    },
    {
      "inputs": [
        {
          "internalType": "address",
          "name": "wallet",
          "type": "address"
        }
      ],
      "name": "freezeWallet",
      "outputs": [],
      "stateMutability": "nonpayable",
      "type": "function"
    },
    {
      "inputs": [],
      "name": "fundingCap",
      "outputs": [
        {
          "internalType": "uint256",
          "name": "",
          "type": "uint256"
        }
      ],
      "stateMutability": "view",
      "type": "function"
    },
    {
      "inputs": [],
      "name": "getEscrowInfo",
      "outputs": [
        {
          "internalType": "enum StrataDeedRWA.EscrowState",
          "name": "state",
          "type": "uint8"
        },
        {
          "internalType": "uint256",
          "name": "raised",
          "type": "uint256"
        },
        {
          "internalType": "uint256",
          "name": "cap",
          "type": "uint256"
        },
        {
          "internalType": "uint256",
          "name": "remaining",
          "type": "uint256"
        }
      ],
      "stateMutability": "view",
      "type": "function"
    },
    {
      "inputs": [
        {
          "internalType": "address",
          "name": "investor",
          "type": "address"
        }
      ],
      "name": "getInvestorInfo",
      "outputs": [
        {
          "internalType": "uint256",
          "name": "deposit",
          "type": "uint256"
        },
        {
          "internalType": "uint256",
          "name": "tokens",
          "type": "uint256"
        },
        {
          "internalType": "uint256",
          "name": "pendingYield",
          "type": "uint256"
        },
        {
          "internalType": "bool",
          "name": "compliant",
          "type": "bool"
        }
      ],
      "stateMutability": "view",
      "type": "function"
    },
    {
      "inputs": [
        {
          "internalType": "address",
          "name": "user",
          "type": "address"
        }
      ],
      "name": "getPendingYield",
      "outputs": [
        {
          "internalType": "uint256",
          "name": "",
          "type": "uint256"
        }
      ],
      "stateMutability": "view",
      "type": "function"
    },
    {
      "inputs": [],
      "name": "getTimelockInfo",
      "outputs": [
        {
          "internalType": "bool",
          "name": "pending",
          "type": "bool"
        },
        {
          "internalType": "uint256",
          "name": "unlockTime",
          "type": "uint256"
        },
        {
          "internalType": "string",
          "name": "reason",
          "type": "string"
        }
      ],
      "stateMutability": "view",
      "type": "function"
    },
    {
      "inputs": [
        {
          "internalType": "address",
          "name": "wallet",
          "type": "address"
        }
      ],
      "name": "isCompliant",
      "outputs": [
        {
          "internalType": "bool",
          "name": "",
          "type": "bool"
        }
      ],
      "stateMutability": "view",
      "type": "function"
    },
    {
      "inputs": [
        {
          "internalType": "bytes32",
          "name": "",
          "type": "bytes32"
        }
      ],
      "name": "isCredentialRevoked",
      "outputs": [
        {
          "internalType": "bool",
          "name": "",
          "type": "bool"
        }
      ],
      "stateMutability": "view",
      "type": "function"
    },
    {
      "inputs": [
        {
          "internalType": "address",
          "name": "",
          "type": "address"
        }
      ],
      "name": "isWalletFrozen",
      "outputs": [
        {
          "internalType": "bool",
          "name": "",
          "type": "bool"
        }
      ],
      "stateMutability": "view",
      "type": "function"
    },
    {
      "inputs": [],
      "name": "minDepositForTokens",
      "outputs": [
        {
          "internalType": "uint256",
          "name": "",
          "type": "uint256"
        }
      ],
      "stateMutability": "view",
      "type": "function"
    },
    {
      "inputs": [],
      "name": "name",
      "outputs": [
        {
          "internalType": "string",
          "name": "",
          "type": "string"
        }
      ],
      "stateMutability": "view",
      "type": "function"
    },
    {
      "inputs": [],
      "name": "owner",
      "outputs": [
        {
          "internalType": "address",
          "name": "",
          "type": "address"
        }
      ],
      "stateMutability": "view",
      "type": "function"
    },
    {
      "inputs": [],
      "name": "pauseContract",
      "outputs": [],
      "stateMutability": "nonpayable",
      "type": "function"
    },
    {
      "inputs": [],
      "name": "paused",
      "outputs": [
        {
          "internalType": "bool",
          "name": "",
          "type": "bool"
        }
      ],
      "stateMutability": "view",
      "type": "function"
    },
    {
      "inputs": [
        {
          "internalType": "address",
          "name": "tokenAddress",
          "type": "address"
        },
        {
          "internalType": "uint256",
          "name": "amount",
          "type": "uint256"
        }
      ],
      "name": "recoverERC20",
      "outputs": [],
      "stateMutability": "nonpayable",
      "type": "function"
    },
    {
      "inputs": [
        {
          "internalType": "uint256",
          "name": "amount",
          "type": "uint256"
        }
      ],
      "name": "recoverETH",
      "outputs": [],
      "stateMutability": "nonpayable",
      "type": "function"
    },
    {
      "inputs": [
        {
          "internalType": "address",
          "name": "wallet",
          "type": "address"
        },
        {
          "internalType": "bytes32",
          "name": "credentialHash",
          "type": "bytes32"
        }
      ],
      "name": "registerCredential",
      "outputs": [],
      "stateMutability": "nonpayable",
      "type": "function"
    },
    {
      "inputs": [],
      "name": "renounceOwnership",
      "outputs": [],
      "stateMutability": "nonpayable",
      "type": "function"
    },
    {
      "inputs": [
        {
          "internalType": "string",
          "name": "reason",
          "type": "string"
        }
      ],
      "name": "requestCancelEscrow",
      "outputs": [],
      "stateMutability": "nonpayable",
      "type": "function"
    },
    {
      "inputs": [
        {
          "internalType": "bytes32",
          "name": "credentialHash",
          "type": "bytes32"
        },
        {
          "internalType": "string",
          "name": "reason",
          "type": "string"
        }
      ],
      "name": "revokeCredentialHash",
      "outputs": [],
      "stateMutability": "nonpayable",
      "type": "function"
    },
    {
      "inputs": [
        {
          "internalType": "address",
          "name": "",
          "type": "address"
        }
      ],
      "name": "rewardDebt",
      "outputs": [
        {
          "internalType": "uint256",
          "name": "",
          "type": "uint256"
        }
      ],
      "stateMutability": "view",
      "type": "function"
    },
    {
      "inputs": [
        {
          "internalType": "uint256",
          "name": "newMinDeposit",
          "type": "uint256"
        }
      ],
      "name": "setMinDeposit",
      "outputs": [],
      "stateMutability": "nonpayable",
      "type": "function"
    },
    {
      "inputs": [],
      "name": "symbol",
      "outputs": [
        {
          "internalType": "string",
          "name": "",
          "type": "string"
        }
      ],
      "stateMutability": "view",
      "type": "function"
    },
    {
      "inputs": [],
      "name": "totalEscrowRaised",
      "outputs": [
        {
          "internalType": "uint256",
          "name": "",
          "type": "uint256"
        }
      ],
      "stateMutability": "view",
      "type": "function"
    },
    {
      "inputs": [],
      "name": "totalEscrowRaisedBeforeFinalization",
      "outputs": [
        {
          "internalType": "uint256",
          "name": "",
          "type": "uint256"
        }
      ],
      "stateMutability": "view",
      "type": "function"
    },
    {
      "inputs": [],
      "name": "totalSupply",
      "outputs": [
        {
          "internalType": "uint256",
          "name": "",
          "type": "uint256"
        }
      ],
      "stateMutability": "view",
      "type": "function"
    },
    {
      "inputs": [],
      "name": "totalYieldDistributed",
      "outputs": [
        {
          "internalType": "uint256",
          "name": "",
          "type": "uint256"
        }
      ],
      "stateMutability": "view",
      "type": "function"
    },
    {
      "inputs": [
        {
          "internalType": "address",
          "name": "to",
          "type": "address"
        },
        {
          "internalType": "uint256",
          "name": "value",
          "type": "uint256"
        }
      ],
      "name": "transfer",
      "outputs": [
        {
          "internalType": "bool",
          "name": "",
          "type": "bool"
        }
      ],
      "stateMutability": "nonpayable",
      "type": "function"
    },
    {
      "inputs": [
        {
          "internalType": "address",
          "name": "from",
          "type": "address"
        },
        {
          "internalType": "address",
          "name": "to",
          "type": "address"
        },
        {
          "internalType": "uint256",
          "name": "value",
          "type": "uint256"
        }
      ],
      "name": "transferFrom",
      "outputs": [
        {
          "internalType": "bool",
          "name": "",
          "type": "bool"
        }
      ],
      "stateMutability": "nonpayable",
      "type": "function"
    },
    {
      "inputs": [
        {
          "internalType": "address",
          "name": "newOwner",
          "type": "address"
        }
      ],
      "name": "transferOwnership",
      "outputs": [],
      "stateMutability": "nonpayable",
      "type": "function"
    },
    {
      "inputs": [
        {
          "internalType": "address",
          "name": "wallet",
          "type": "address"
        }
      ],
      "name": "unfreezeWallet",
      "outputs": [],
      "stateMutability": "nonpayable",
      "type": "function"
    },
    {
      "inputs": [],
      "name": "unpauseContract",
      "outputs": [],
      "stateMutability": "nonpayable",
      "type": "function"
    },
    {
      "inputs": [],
      "name": "withdrawRefund",
      "outputs": [],
      "stateMutability": "nonpayable",
      "type": "function"
    },
    {
      "stateMutability": "payable",
      "type": "receive"
    }
  ],
  "bytecode": "0x60a0604052655af3107a40006007553480156200001b57600080fd5b506040516200600138038062006001833981810160405281019062000041919062000352565b806040518060400160405280601b81526020017f537472617461446565642050726f706572747920546f6b656e203100000000008152506040518060400160405280600681526020017f534450542d3100000000000000000000000000000000000000000000000000008152508160039081620000bf919062000609565b508060049081620000d1919062000609565b505050600073ffffffffffffffffffffffffffffffffffffffff168173ffffffffffffffffffffffffffffffffffffffff1603620001495760006040517f1e4fbdf700000000000000000000000000000000000000000000000000000000815260040162000140919062000701565b60405180910390fd5b6200015a81620001e760201b60201c565b50600160068190555060008211620001a9576040517f08c379a0000000000000000000000000000000000000000000000000000000008152600401620001a0906200077f565b60405180910390fd5b81608081815250506000600b60006101000a81548160ff02191690836002811115620001da57620001d9620007a1565b5b02179055505050620007d0565b6000600560009054906101000a900473ffffffffffffffffffffffffffffffffffffffff16905081600560006101000a81548173ffffffffffffffffffffffffffffffffffffffff021916908373ffffffffffffffffffffffffffffffffffffffff1602179055508173ffffffffffffffffffffffffffffffffffffffff168173ffffffffffffffffffffffffffffffffffffffff167f8be0079c531659141344cd1fd0a4f28419497f9722a3daafe3b4186f6b6457e060405160405180910390a35050565b600080fd5b6000819050919050565b620002c781620002b2565b8114620002d357600080fd5b50565b600081519050620002e781620002bc565b92915050565b600073ffffffffffffffffffffffffffffffffffffffff82169050919050565b60006200031a82620002ed565b9050919050565b6200032c816200030d565b81146200033857600080fd5b50565b6000815190506200034c8162000321565b92915050565b600080604083850312156200036c576200036b620002ad565b5b60006200037c85828601620002d6565b92505060206200038f858286016200033b565b9150509250929050565b600081519050919050565b7f4e487b7100000000000000000000000000000000000000000000000000000000600052604160045260246000fd5b7f4e487b7100000000000000000000000000000000000000000000000000000000600052602260045260246000fd5b600060028204905060018216806200041b57607f821691505b602082108103620004315762000430620003d3565b5b50919050565b60008190508160005260206000209050919050565b60006020601f8301049050919050565b600082821b905092915050565b6000600883026200049b7fffffffffffffffffffffffffffffffffffffffffffffffffffffffffffffffff826200045c565b620004a786836200045c565b95508019841693508086168417925050509392505050565b6000819050919050565b6000620004ea620004e4620004de84620002b2565b620004bf565b620002b2565b9050919050565b6000819050919050565b6200050683620004c9565b6200051e6200051582620004f1565b84845462000469565b825550505050565b600090565b6200053562000526565b62000542818484620004fb565b505050565b5b818110156200056a576200055e6000826200052b565b60018101905062000548565b5050565b601f821115620005b957620005838162000437565b6200058e846200044c565b810160208510156200059e578190505b620005b6620005ad856200044c565b83018262000547565b50505b505050565b600082821c905092915050565b6000620005de60001984600802620005be565b1980831691505092915050565b6000620005f98383620005cb565b9150826002028217905092915050565b620006148262000399565b67ffffffffffffffff81111562000630576200062f620003a4565b5b6200063c825462000402565b620006498282856200056e565b600060209050601f8311600181146200068157600084156200066c578287015190505b620006788582620005eb565b865550620006e8565b601f198416620006918662000437565b60005b82811015620006bb5784890151825560018201915060208501945060208101905062000694565b86831015620006db5784890151620006d7601f891682620005cb565b8355505b6001600288020188555050505b505050505050565b620006fb816200030d565b82525050565b6000602082019050620007186000830184620006f0565b92915050565b600082825260208201905092915050565b7f46756e64696e6720636170206d757374206265203e2030000000000000000000600082015250565b6000620007676017836200071e565b915062000774826200072f565b602082019050919050565b600060208201905081810360008301526200079a8162000758565b9050919050565b7f4e487b7100000000000000000000000000000000000000000000000000000000600052602160045260246000fd5b6080516158006200080160003960008181610f2c01528181610f5001528181611ff30152612be901526158006000f3fe6080604052600436106102e75760003560e01c806379288c0c11610190578063a2d5b005116100dc578063cba8af9b11610095578063e3b2594f1161006f578063e3b2594f14610b33578063e509b03314610b5e578063f2fde38b14610b89578063fa1c328514610bb257610327565b8063cba8af9b14610aa4578063d333555314610acd578063dd62ed3e14610af657610327565b8063a2d5b005146109a8578063a7096763146109e5578063a9059cbb14610a10578063b33712c514610a4d578063b92e7fed14610a64578063ca2c018414610a7b57610327565b80638fcc9cfb1161014957806397206bd51161012357806397206bd5146108ee57806399e01dc9146109195780639f00116914610942578063a200e5d01461096b57610327565b80638fcc9cfb1461085d57806395583b071461088657806395d89b41146108c357610327565b806379288c0c1461078057806382cde4a3146107a95780638980f11f146107d45780638aa1c0dc146107fd5780638c8e6f5e146108075780638da5cb5b1461083257610327565b8063313ce5671161024f578063537bb137116102085780635e1013a3116101e25780635e1013a3146106d857806360f588b71461070357806370a082311461072c578063715018a61461076957610327565b8063537bb137146106335780635873eb9b146106705780635c975abb146106ad57610327565b8063313ce5671461058e578063406cf229146105b9578063439766ce146105d057806347046891146105e757806348c54b9d146105f1578063518c51041461060857610327565b8063095ea7b3116102a1578063095ea7b31461047a5780630dbcc88e146104b7578063110f8874146104e457806318160ddd146104fb5780631b6701911461052657806323b872dd1461055157610327565b8062cf86681461036257806306a53b091461039f57806306fdde03146103ca5780630707873c146103f5578063085f9e281461043557806309145d7d1461044c57610327565b36610327576040517f08c379a000000000000000000000000000000000000000000000000000000000815260040161031e90613c20565b60405180910390fd5b6040517f08c379a000000000000000000000000000000000000000000000000000000000815260040161035990613c8c565b60405180910390fd5b34801561036e57600080fd5b5061038960048036038101906103849190613cf6565b610bdd565b6040516103969190613d3e565b60405180910390f35b3480156103ab57600080fd5b506103b4610bfd565b6040516103c19190613d72565b60405180910390f35b3480156103d657600080fd5b506103df610c03565b6040516103ec9190613e0c565b60405180910390f35b34801561040157600080fd5b5061041c60048036038101906104179190613e8c565b610c95565b60405161042c9493929190613eb9565b60405180910390f35b34801561044157600080fd5b5061044a610d05565b005b34801561045857600080fd5b50610461610f11565b6040516104719493929190613f75565b60405180910390f35b34801561048657600080fd5b506104a1600480360381019061049c9190613fe6565b610f87565b6040516104ae9190613d3e565b60405180910390f35b3480156104c357600080fd5b506104cc610faa565b6040516104db93929190614026565b60405180910390f35b3480156104f057600080fd5b506104f961105b565b005b34801561050757600080fd5b506105106112f4565b60405161051d9190613d72565b60405180910390f35b34801561053257600080fd5b5061053b6112fe565b6040516105489190614064565b60405180910390f35b34801561055d57600080fd5b506105786004803603810190610573919061407f565b611311565b6040516105859190613d3e565b60405180910390f35b34801561059a57600080fd5b506105a3611340565b6040516105b091906140ee565b60405180910390f35b3480156105c557600080fd5b506105ce611349565b005b3480156105dc57600080fd5b506105e5611576565b005b6105ef611588565b005b3480156105fd57600080fd5b506106066116b1565b005b34801561061457600080fd5b5061061d611909565b60405161062a9190613d72565b60405180910390f35b34801561063f57600080fd5b5061065a60048036038101906106559190613e8c565b61190f565b6040516106679190613d72565b60405180910390f35b34801561067c57600080fd5b5061069760048036038101906106929190613e8c565b611a31565b6040516106a49190613d72565b60405180910390f35b3480156106b957600080fd5b506106c2611a49565b6040516106cf9190613d3e565b60405180910390f35b3480156106e457600080fd5b506106ed611a60565b6040516106fa9190613d72565b60405180910390f35b34801561070f57600080fd5b5061072a60048036038101906107259190613e8c565b611a66565b005b34801561073857600080fd5b50610753600480360381019061074e9190613e8c565b611b0c565b6040516107609190613d72565b60405180910390f35b34801561077557600080fd5b5061077e611b54565b005b34801561078c57600080fd5b506107a760048036038101906107a2919061416e565b611b68565b005b3480156107b557600080fd5b506107be611e01565b6040516107cb9190613d72565b60405180910390f35b3480156107e057600080fd5b506107fb60048036038101906107f69190613fe6565b611e07565b005b610805611f22565b005b34801561081357600080fd5b5061081c6121b1565b6040516108299190613d3e565b60405180910390f35b34801561083e57600080fd5b506108476121c4565b60405161085491906141ca565b60405180910390f35b34801561086957600080fd5b50610884600480360381019061087f91906141e5565b6121ee565b005b34801561089257600080fd5b506108ad60048036038101906108a89190613e8c565b6122b1565b6040516108ba9190613d3e565b60405180910390f35b3480156108cf57600080fd5b506108d86122d1565b6040516108e59190613e0c565b60405180910390f35b3480156108fa57600080fd5b50610903612363565b6040516109109190613d72565b60405180910390f35b34801561092557600080fd5b50610940600480360381019061093b9190614212565b612369565b005b34801561094e57600080fd5b5061096960048036038101906109649190613e8c565b6124b1565b005b34801561097757600080fd5b50610992600480360381019061098d9190613e8c565b612557565b60405161099f9190613d3e565b60405180910390f35b3480156109b457600080fd5b506109cf60048036038101906109ca9190613e8c565b612647565b6040516109dc9190613d72565b60405180910390f35b3480156109f157600080fd5b506109fa61265f565b604051610a079190613d72565b60405180910390f35b348015610a1c57600080fd5b50610a376004803603810190610a329190613fe6565b612665565b604051610a449190613d3e565b60405180910390f35b348015610a5957600080fd5b50610a62612688565b005b348015610a7057600080fd5b50610a7961269a565b005b348015610a8757600080fd5b50610aa26004803603810190610a9d9190614382565b6128a0565b005b348015610ab057600080fd5b50610acb6004803603810190610ac691906143de565b612910565b005b348015610ad957600080fd5b50610af46004803603810190610aef91906141e5565b612a5e565b005b348015610b0257600080fd5b50610b1d6004803603810190610b189190614427565b612b60565b604051610b2a9190613d72565b60405180910390f35b348015610b3f57600080fd5b50610b48612be7565b604051610b559190613d72565b60405180910390f35b348015610b6a57600080fd5b50610b73612c0b565b604051610b809190613d72565b60405180910390f35b348015610b9557600080fd5b50610bb06004803603810190610bab9190613e8c565b612c18565b005b348015610bbe57600080fd5b50610bc7612c9e565b604051610bd49190613e0c565b60405180910390f35b60096020528060005260406000206000915054906101000a900460ff1681565b60075481565b606060038054610c1290614496565b80601f0160208091040260200160405190810160405280929190818152602001828054610c3e90614496565b8015610c8b5780601f10610c6057610100808354040283529160200191610c8b565b820191906000526020600020905b815481529060010190602001808311610c6e57829003601f168201915b5050505050905090565b600080600080600d60008673ffffffffffffffffffffffffffffffffffffffff1673ffffffffffffffffffffffffffffffffffffffff16815260200190815260200160002054610ce486611b0c565b610ced8761190f565b610cf688612557565b93509350935093509193509193565b610d0d612d2c565b60006002811115610d2157610d20613efe565b5b600b60009054906101000a900460ff166002811115610d4357610d42613efe565b5b14610d83576040517f08c379a0000000000000000000000000000000000000000000000000000000008152600401610d7a90614513565b60405180910390fd5b601160009054906101000a900460ff16610dd2576040517f08c379a0000000000000000000000000000000000000000000000000000000008152600401610dc99061457f565b60405180910390fd5b600f54421015610e17576040517f08c379a0000000000000000000000000000000000000000000000000000000008152600401610e0e906145eb565b60405180910390fd5b60006002811115610e2b57610e2a613efe565b5b600b60009054906101000a900460ff166002811115610e4d57610e4c613efe565b5b14610e8d576040517f08c379a0000000000000000000000000000000000000000000000000000000008152600401610e8490614657565b60405180910390fd5b6002600b60006101000a81548160ff02191690836002811115610eb357610eb2613efe565b5b02179055506000601160006101000a81548160ff0219169083151502179055507fdf5af23a8bfbd700e381c19607d03504d7a5ba1876c669cccd37feace1f5adaa600c546010604051610f07929190614710565b60405180910390a1565b600080600080600b60009054906101000a900460ff16600c547f0000000000000000000000000000000000000000000000000000000000000000600c547f0000000000000000000000000000000000000000000000000000000000000000610f79919061476f565b935093509350935090919293565b600080610f92612db3565b9050610f9f818585612dbb565b600191505092915050565b6000806060601160009054906101000a900460ff16600f546010808054610fd090614496565b80601f0160208091040260200160405190810160405280929190818152602001828054610ffc90614496565b80156110495780601f1061101e57610100808354040283529160200191611049565b820191906000526020600020905b81548152906001019060200180831161102c57829003601f168201915b50505050509050925092509250909192565b611063612dcd565b60028081111561107657611075613efe565b5b600b60009054906101000a900460ff16600281111561109857611097613efe565b5b146110d8576040517f08c379a00000000000000000000000000000000000000000000000000000000081526004016110cf906147ef565b60405180910390fd5b336110e281612557565b611121576040517f08c379a00000000000000000000000000000000000000000000000000000000081526004016111189061485b565b60405180910390fd5b6000600d60003373ffffffffffffffffffffffffffffffffffffffff1673ffffffffffffffffffffffffffffffffffffffff168152602001908152602001600020549050600081116111a8576040517f08c379a000000000000000000000000000000000000000000000000000000000815260040161119f906148c7565b60405180910390fd5b6000600d60003373ffffffffffffffffffffffffffffffffffffffff1673ffffffffffffffffffffffffffffffffffffffff1681526020019081526020016000208190555060003373ffffffffffffffffffffffffffffffffffffffff168260405161121390614918565b60006040518083038185875af1925050503d8060008114611250576040519150601f19603f3d011682016040523d82523d6000602084013e611255565b606091505b5050905080611299576040517f08c379a000000000000000000000000000000000000000000000000000000000815260040161129090614979565b60405180910390fd5b3373ffffffffffffffffffffffffffffffffffffffff167f358fe4192934d3bf28ae181feda1f4bd08ca67f5e2fad55582cce5eb67304ae9836040516112df9190613d72565b60405180910390a25050506112f2612e13565b565b6000600254905090565b600b60009054906101000a900460ff1681565b60008061131c612db3565b9050611329858285612e1d565b611334858585612eb2565b60019150509392505050565b60006012905090565b611351612dcd565b3361135b81612557565b61139a576040517f08c379a00000000000000000000000000000000000000000000000000000000081526004016113919061485b565b60405180910390fd5b6113a333612fa6565b6000601560003373ffffffffffffffffffffffffffffffffffffffff1673ffffffffffffffffffffffffffffffffffffffff1681526020019081526020016000205490506000811161142a576040517f08c379a0000000000000000000000000000000000000000000000000000000008152600401611421906149e5565b60405180910390fd5b6000601560003373ffffffffffffffffffffffffffffffffffffffff1673ffffffffffffffffffffffffffffffffffffffff1681526020019081526020016000208190555060003373ffffffffffffffffffffffffffffffffffffffff168260405161149590614918565b60006040518083038185875af1925050503d80600081146114d2576040519150601f19603f3d011682016040523d82523d6000602084013e6114d7565b606091505b505090508061151b576040517f08c379a000000000000000000000000000000000000000000000000000000000815260040161151290614a51565b60405180910390fd5b3373ffffffffffffffffffffffffffffffffffffffff167faed495d70193dd915b96156dc90595c95aa5cc4f6985a2cd79286232d96ae8e2836040516115619190613d72565b60405180910390a2505050611574612e13565b565b61157e612d2c565b611586613133565b565b611590612d2c565b600061159a6112f4565b116115da576040517f08c379a00000000000000000000000000000000000000000000000000000000081526004016115d190614abd565b60405180910390fd5b6000341161161d576040517f08c379a000000000000000000000000000000000000000000000000000000000815260040161161490614b29565b60405180910390fd5b6116256112f4565b670de0b6b3a7640000346116399190614b49565b6116439190614bba565b601260008282546116549190614beb565b92505081905550346014600082825461166d9190614beb565b925050819055507fa248d81b377afe8736fe397f5a9f8f0d7c581e67ff6ae4037df29a672a92133b346012546040516116a7929190614c1f565b60405180910390a1565b6116b9612dcd565b600160028111156116cd576116cc613efe565b5b600b60009054906101000a900460ff1660028111156116ef576116ee613efe565b5b1461172f576040517f08c379a000000000000000000000000000000000000000000000000000000000815260040161172690614c94565b60405180910390fd5b3361173981612557565b611778576040517f08c379a000000000000000000000000000000000000000000000000000000000815260040161176f9061485b565b60405180910390fd5b6000600d60003373ffffffffffffffffffffffffffffffffffffffff1673ffffffffffffffffffffffffffffffffffffffff168152602001908152602001600020549050600081116117ff576040517f08c379a00000000000000000000000000000000000000000000000000000000081526004016117f690614d00565b60405180910390fd5b6000600e5411611844576040517f08c379a000000000000000000000000000000000000000000000000000000000815260040161183b90614d6c565b60405180910390fd5b6000600e54683635c9adc5dea000008361185e9190614b49565b6118689190614bba565b9050600081116118ad576040517f08c379a00000000000000000000000000000000000000000000000000000000081526004016118a490614dd8565b60405180910390fd5b6000600d60003373ffffffffffffffffffffffffffffffffffffffff1673ffffffffffffffffffffffffffffffffffffffff168152602001908152602001600020819055506118fc3382613196565b505050611907612e13565b565b600f5481565b60008061191b83611b0c565b90506000810361196d57601560008473ffffffffffffffffffffffffffffffffffffffff1673ffffffffffffffffffffffffffffffffffffffff16815260200190815260200160002054915050611a2c565b6000601360008573ffffffffffffffffffffffffffffffffffffffff1673ffffffffffffffffffffffffffffffffffffffff16815260200190815260200160002054670de0b6b3a7640000601254846119c69190614b49565b6119d09190614bba565b6119da919061476f565b905080601560008673ffffffffffffffffffffffffffffffffffffffff1673ffffffffffffffffffffffffffffffffffffffff16815260200190815260200160002054611a279190614beb565b925050505b919050565b60136020528060005260406000206000915090505481565b6000600560149054906101000a900460ff16905090565b60125481565b611a6e612d2c565b6000600a60008373ffffffffffffffffffffffffffffffffffffffff1673ffffffffffffffffffffffffffffffffffffffff16815260200190815260200160002060006101000a81548160ff0219169083151502179055508073ffffffffffffffffffffffffffffffffffffffff167fd247131fabb99dc3ba793524f53f05a77eeef38f12b30119655ee340810b121060405160405180910390a250565b60008060008373ffffffffffffffffffffffffffffffffffffffff1673ffffffffffffffffffffffffffffffffffffffff168152602001908152602001600020549050919050565b611b5c612d2c565b611b666000613218565b565b611b70612d2c565b611b78612dcd565b60005b82829050811015611df457611bb6838383818110611b9c57611b9b614df8565b5b9050602002016020810190611bb19190613e8c565b612fa6565b600060156000858585818110611bcf57611bce614df8565b5b9050602002016020810190611be49190613e8c565b73ffffffffffffffffffffffffffffffffffffffff1673ffffffffffffffffffffffffffffffffffffffff1681526020019081526020016000205490506000811115611de057600060156000868686818110611c4357611c42614df8565b5b9050602002016020810190611c589190613e8c565b73ffffffffffffffffffffffffffffffffffffffff1673ffffffffffffffffffffffffffffffffffffffff168152602001908152602001600020819055506000848484818110611cab57611caa614df8565b5b9050602002016020810190611cc09190613e8c565b73ffffffffffffffffffffffffffffffffffffffff1682604051611ce390614918565b60006040518083038185875af1925050503d8060008114611d20576040519150601f19603f3d011682016040523d82523d6000602084013e611d25565b606091505b5050905080611d69576040517f08c379a0000000000000000000000000000000000000000000000000000000008152600401611d6090614a51565b60405180910390fd5b848484818110611d7c57611d7b614df8565b5b9050602002016020810190611d919190613e8c565b73ffffffffffffffffffffffffffffffffffffffff167faed495d70193dd915b96156dc90595c95aa5cc4f6985a2cd79286232d96ae8e283604051611dd69190613d72565b60405180910390a2505b508080611dec90614e27565b915050611b7b565b50611dfd612e13565b5050565b600e5481565b611e0f612d2c565b600073ffffffffffffffffffffffffffffffffffffffff168273ffffffffffffffffffffffffffffffffffffffff1603611e7e576040517f08c379a0000000000000000000000000000000000000000000000000000000008152600401611e7590614ebb565b60405180910390fd5b3073ffffffffffffffffffffffffffffffffffffffff168273ffffffffffffffffffffffffffffffffffffffff1603611eec576040517f08c379a0000000000000000000000000000000000000000000000000000000008152600401611ee390614f27565b60405180910390fd5b611f1e611ef76121c4565b828473ffffffffffffffffffffffffffffffffffffffff166132de9092919063ffffffff16565b5050565b611f2a612dcd565b60006002811115611f3e57611f3d613efe565b5b600b60009054906101000a900460ff166002811115611f6057611f5f613efe565b5b14611fa0576040517f08c379a0000000000000000000000000000000000000000000000000000000008152600401611f9790614513565b60405180910390fd5b33611faa81612557565b611fe9576040517f08c379a0000000000000000000000000000000000000000000000000000000008152600401611fe09061485b565b60405180910390fd5b611ff161335d565b7f000000000000000000000000000000000000000000000000000000000000000034600c546120209190614beb565b1115612061576040517f08c379a000000000000000000000000000000000000000000000000000000000815260040161205890614f93565b60405180910390fd5b600034116120a4576040517f08c379a000000000000000000000000000000000000000000000000000000000815260040161209b90614fff565b60405180910390fd5b6007543410156120e9576040517f08c379a00000000000000000000000000000000000000000000000000000000081526004016120e09061506b565b60405180910390fd5b34600d60003373ffffffffffffffffffffffffffffffffffffffff1673ffffffffffffffffffffffffffffffffffffffff16815260200190815260200160002060008282546121389190614beb565b9250508190555034600c60008282546121519190614beb565b925050819055503373ffffffffffffffffffffffffffffffffffffffff167fc9030f4276aa9a54d2f20e78ab66876119c07f7bc8bff21fb4762855efdecd2f3460405161219e9190613d72565b60405180910390a2506121af612e13565b565b601160009054906101000a900460ff1681565b6000600560009054906101000a900473ffffffffffffffffffffffffffffffffffffffff16905090565b6121f6612d2c565b6000600281111561220a57612209613efe565b5b600b60009054906101000a900460ff16600281111561222c5761222b613efe565b5b1461226c576040517f08c379a000000000000000000000000000000000000000000000000000000000815260040161226390614513565b60405180910390fd5b7fcacd94bd1e7bb1185c816a740d9439bc8eff8159f6f4ffad8d306b5aca2ebd926007548260405161229f929190614c1f565b60405180910390a18060078190555050565b600a6020528060005260406000206000915054906101000a900460ff1681565b6060600480546122e090614496565b80601f016020809104026020016040519081016040528092919081815260200182805461230c90614496565b80156123595780601f1061232e57610100808354040283529160200191612359565b820191906000526020600020905b81548152906001019060200180831161233c57829003601f168201915b5050505050905090565b60145481565b612371612d2c565b600073ffffffffffffffffffffffffffffffffffffffff168273ffffffffffffffffffffffffffffffffffffffff16036123e0576040517f08c379a00000000000000000000000000000000000000000000000000000000081526004016123d7906150d7565b60405180910390fd5b6000801b8103612425576040517f08c379a000000000000000000000000000000000000000000000000000000000815260040161241c90615143565b60405180910390fd5b80600860008473ffffffffffffffffffffffffffffffffffffffff1673ffffffffffffffffffffffffffffffffffffffff16815260200190815260200160002081905550808273ffffffffffffffffffffffffffffffffffffffff167fa9c79f7fdecbcadc910a54acb350582c5305208bae1816c550e2ed206ca7b80660405160405180910390a35050565b6124b9612d2c565b6001600a60008373ffffffffffffffffffffffffffffffffffffffff1673ffffffffffffffffffffffffffffffffffffffff16815260200190815260200160002060006101000a81548160ff0219169083151502179055508073ffffffffffffffffffffffffffffffffffffffff167fc9710d20bdbf99ca92a03644a5a8f85ea6badb387ff0abca08eebdfbff50b77f60405160405180910390a250565b6000600a60008373ffffffffffffffffffffffffffffffffffffffff1673ffffffffffffffffffffffffffffffffffffffff16815260200190815260200160002060009054906101000a900460ff16156125b45760009050612642565b6000600860008473ffffffffffffffffffffffffffffffffffffffff1673ffffffffffffffffffffffffffffffffffffffff1681526020019081526020016000205490506000801b810361260c576000915050612642565b6009600082815260200190815260200160002060009054906101000a900460ff161561263c576000915050612642565b60019150505b919050565b600d6020528060005260406000206000915090505481565b600c5481565b600080612670612db3565b905061267d818585612eb2565b600191505092915050565b612690612d2c565b61269861339e565b565b6126a2612d2c565b6126aa612dcd565b600060028111156126be576126bd613efe565b5b600b60009054906101000a900460ff1660028111156126e0576126df613efe565b5b14612720576040517f08c379a000000000000000000000000000000000000000000000000000000000815260040161271790614513565b60405180910390fd5b6000600c5411612765576040517f08c379a000000000000000000000000000000000000000000000000000000000815260040161275c906151af565b60405180910390fd5b6001600b60006101000a81548160ff0219169083600281111561278b5761278a613efe565b5b0217905550600c54600e819055506000600c5490506000600c8190555060006127b26121c4565b73ffffffffffffffffffffffffffffffffffffffff16826040516127d590614918565b60006040518083038185875af1925050503d8060008114612812576040519150601f19603f3d011682016040523d82523d6000602084013e612817565b606091505b505090508061285b576040517f08c379a00000000000000000000000000000000000000000000000000000000081526004016128529061521b565b60405180910390fd5b7fba737fc715de33eff4584df27bc4f73ce95709c537e32e6930a03d906ebb1c7d824260405161288c929190614c1f565b60405180910390a1505061289e612e13565b565b6128a8612d2c565b60016009600084815260200190815260200160002060006101000a81548160ff021916908315150217905550817f8a7dd18f81574794be0ac8390928b9b5988992a941406746e60f37ea696126d7826040516129049190613e0c565b60405180910390a25050565b612918612d2c565b6000600281111561292c5761292b613efe565b5b600b60009054906101000a900460ff16600281111561294e5761294d613efe565b5b1461298e576040517f08c379a000000000000000000000000000000000000000000000000000000000815260040161298590614513565b60405180910390fd5b601160009054906101000a900460ff16156129de576040517f08c379a00000000000000000000000000000000000000000000000000000000081526004016129d590615287565b60405180910390fd5b6001601160006101000a81548160ff0219169083151502179055508060109081612a08919061543e565b506202a30042612a189190614beb565b600f819055507f9b1271142b9081f06199378d5950b21a579d277be3fc68908d852b43a5cca0f24282600f54604051612a5393929190615510565b60405180910390a150565b612a66612d2c565b80471015612aa9576040517f08c379a0000000000000000000000000000000000000000000000000000000008152600401612aa09061559a565b60405180910390fd5b6000612ab36121c4565b73ffffffffffffffffffffffffffffffffffffffff1682604051612ad690614918565b60006040518083038185875af1925050503d8060008114612b13576040519150601f19603f3d011682016040523d82523d6000602084013e612b18565b606091505b5050905080612b5c576040517f08c379a0000000000000000000000000000000000000000000000000000000008152600401612b5390615606565b60405180910390fd5b5050565b6000600160008473ffffffffffffffffffffffffffffffffffffffff1673ffffffffffffffffffffffffffffffffffffffff16815260200190815260200160002060008373ffffffffffffffffffffffffffffffffffffffff1673ffffffffffffffffffffffffffffffffffffffff16815260200190815260200160002054905092915050565b7f000000000000000000000000000000000000000000000000000000000000000081565b683635c9adc5dea0000081565b612c20612d2c565b600073ffffffffffffffffffffffffffffffffffffffff168173ffffffffffffffffffffffffffffffffffffffff1603612c925760006040517f1e4fbdf7000000000000000000000000000000000000000000000000000000008152600401612c8991906141ca565b60405180910390fd5b612c9b81613218565b50565b60108054612cab90614496565b80601f0160208091040260200160405190810160405280929190818152602001828054612cd790614496565b8015612d245780601f10612cf957610100808354040283529160200191612d24565b820191906000526020600020905b815481529060010190602001808311612d0757829003601f168201915b505050505081565b612d34612db3565b73ffffffffffffffffffffffffffffffffffffffff16612d526121c4565b73ffffffffffffffffffffffffffffffffffffffff1614612db157612d75612db3565b6040517f118cdaa7000000000000000000000000000000000000000000000000000000008152600401612da891906141ca565b60405180910390fd5b565b600033905090565b612dc88383836001613401565b505050565b600260065403612e09576040517f3ee5aeb500000000000000000000000000000000000000000000000000000000815260040160405180910390fd5b6002600681905550565b6001600681905550565b6000612e298484612b60565b90507fffffffffffffffffffffffffffffffffffffffffffffffffffffffffffffffff811015612eac5781811015612e9c578281836040517ffb8f41b2000000000000000000000000000000000000000000000000000000008152600401612e9393929190615626565b60405180910390fd5b612eab84848484036000613401565b5b50505050565b600073ffffffffffffffffffffffffffffffffffffffff168373ffffffffffffffffffffffffffffffffffffffff1603612f245760006040517f96c6fd1e000000000000000000000000000000000000000000000000000000008152600401612f1b91906141ca565b60405180910390fd5b600073ffffffffffffffffffffffffffffffffffffffff168273ffffffffffffffffffffffffffffffffffffffff1603612f965760006040517fec442f05000000000000000000000000000000000000000000000000000000008152600401612f8d91906141ca565b60405180910390fd5b612fa18383836135d8565b505050565b6000612fb182611b0c565b905060008103612fc15750613130565b6000670de0b6b3a764000060125483612fda9190614b49565b612fe49190614bba565b90506000601360008573ffffffffffffffffffffffffffffffffffffffff1673ffffffffffffffffffffffffffffffffffffffff1681526020019081526020016000205490508082111561312c5760008183613040919061476f565b905082601360008773ffffffffffffffffffffffffffffffffffffffff1673ffffffffffffffffffffffffffffffffffffffff1681526020019081526020016000208190555080601560008773ffffffffffffffffffffffffffffffffffffffff1673ffffffffffffffffffffffffffffffffffffffff16815260200190815260200160002060008282546130d59190614beb565b925050819055508473ffffffffffffffffffffffffffffffffffffffff167f8258a59886e03bdb78e5ddb9566b8ad4957a1747e8d15fd0b4a24274f35cf317826040516131229190613d72565b60405180910390a2505b5050505b50565b61313b61335d565b6001600560146101000a81548160ff0219169083151502179055507f62e78cea01bee320cd4e420270b5ea74000d11b0c9f74754ebdbfc544b05a25861317f612db3565b60405161318c91906141ca565b60405180910390a1565b600073ffffffffffffffffffffffffffffffffffffffff168273ffffffffffffffffffffffffffffffffffffffff16036132085760006040517fec442f050000000000000000000000000000000000000000000000000000000081526004016131ff91906141ca565b60405180910390fd5b613214600083836135d8565b5050565b6000600560009054906101000a900473ffffffffffffffffffffffffffffffffffffffff16905081600560006101000a81548173ffffffffffffffffffffffffffffffffffffffff021916908373ffffffffffffffffffffffffffffffffffffffff1602179055508173ffffffffffffffffffffffffffffffffffffffff168173ffffffffffffffffffffffffffffffffffffffff167f8be0079c531659141344cd1fd0a4f28419497f9722a3daafe3b4186f6b6457e060405160405180910390a35050565b613358838473ffffffffffffffffffffffffffffffffffffffff1663a9059cbb858560405160240161331192919061565d565b604051602081830303815290604052915060e01b6020820180517bffffffffffffffffffffffffffffffffffffffffffffffffffffffff8381831617835250505050613896565b505050565b613365611a49565b1561339c576040517fd93c066500000000000000000000000000000000000000000000000000000000815260040160405180910390fd5b565b6133a6613938565b6000600560146101000a81548160ff0219169083151502179055507f5db9ee0a495bf2e6ff9c91a7834c1ba4fdd244a5e8aa4e537bd38aeae4b073aa6133ea612db3565b6040516133f791906141ca565b60405180910390a1565b600073ffffffffffffffffffffffffffffffffffffffff168473ffffffffffffffffffffffffffffffffffffffff16036134735760006040517fe602df0500000000000000000000000000000000000000000000000000000000815260040161346a91906141ca565b60405180910390fd5b600073ffffffffffffffffffffffffffffffffffffffff168373ffffffffffffffffffffffffffffffffffffffff16036134e55760006040517f94280d620000000000000000000000000000000000000000000000000000000081526004016134dc91906141ca565b60405180910390fd5b81600160008673ffffffffffffffffffffffffffffffffffffffff1673ffffffffffffffffffffffffffffffffffffffff16815260200190815260200160002060008573ffffffffffffffffffffffffffffffffffffffff1673ffffffffffffffffffffffffffffffffffffffff1681526020019081526020016000208190555080156135d2578273ffffffffffffffffffffffffffffffffffffffff168473ffffffffffffffffffffffffffffffffffffffff167f8c5be1e5ebec7d5bd14f71427d1e84f3dd0314c0f7b2291e5b200ac8c7c3b925846040516135c99190613d72565b60405180910390a35b50505050565b600073ffffffffffffffffffffffffffffffffffffffff168373ffffffffffffffffffffffffffffffffffffffff16141580156136425750600073ffffffffffffffffffffffffffffffffffffffff168273ffffffffffffffffffffffffffffffffffffffff1614155b156137205761364f611a49565b1561368f576040517f08c379a0000000000000000000000000000000000000000000000000000000008152600401613686906156d2565b60405180910390fd5b61369883612557565b6136d7576040517f08c379a00000000000000000000000000000000000000000000000000000000081526004016136ce9061573e565b60405180910390fd5b6136e082612557565b61371f576040517f08c379a0000000000000000000000000000000000000000000000000000000008152600401613716906157aa565b60405180910390fd5b5b600061372b84611b0c565b9050600061373884611b0c565b9050670de0b6b3a7640000601254836137519190614b49565b61375b9190614bba565b601360008773ffffffffffffffffffffffffffffffffffffffff1673ffffffffffffffffffffffffffffffffffffffff16815260200190815260200160002081905550670de0b6b3a7640000601254826137b59190614b49565b6137bf9190614bba565b601360008673ffffffffffffffffffffffffffffffffffffffff1673ffffffffffffffffffffffffffffffffffffffff1681526020019081526020016000208190555061380d858585613978565b600073ffffffffffffffffffffffffffffffffffffffff168573ffffffffffffffffffffffffffffffffffffffff16141580156138775750600073ffffffffffffffffffffffffffffffffffffffff168473ffffffffffffffffffffffffffffffffffffffff1614155b1561388f5761388585612fa6565b61388e84612fa6565b5b5050505050565b600080602060008451602086016000885af1806138b9576040513d6000823e3d81fd5b3d9250600051915050600082146138d45760018114156138f0565b60008473ffffffffffffffffffffffffffffffffffffffff163b145b1561393257836040517f5274afe700000000000000000000000000000000000000000000000000000000815260040161392991906141ca565b60405180910390fd5b50505050565b613940611a49565b613976576040517f8dfc202b00000000000000000000000000000000000000000000000000000000815260040160405180910390fd5b565b600073ffffffffffffffffffffffffffffffffffffffff168373ffffffffffffffffffffffffffffffffffffffff16036139ca5780600260008282546139be9190614beb565b92505081905550613a9d565b60008060008573ffffffffffffffffffffffffffffffffffffffff1673ffffffffffffffffffffffffffffffffffffffff16815260200190815260200160002054905081811015613a56578381836040517fe450d38c000000000000000000000000000000000000000000000000000000008152600401613a4d93929190615626565b60405180910390fd5b8181036000808673ffffffffffffffffffffffffffffffffffffffff1673ffffffffffffffffffffffffffffffffffffffff16815260200190815260200160002081905550505b600073ffffffffffffffffffffffffffffffffffffffff168273ffffffffffffffffffffffffffffffffffffffff1603613ae65780600260008282540392505081905550613b33565b806000808473ffffffffffffffffffffffffffffffffffffffff1673ffffffffffffffffffffffffffffffffffffffff168152602001908152602001600020600082825401925050819055505b8173ffffffffffffffffffffffffffffffffffffffff168373ffffffffffffffffffffffffffffffffffffffff167fddf252ad1be2c89b69c2b068fc378daa952ba7f163c4a11628f55a4df523b3ef83604051613b909190613d72565b60405180910390a3505050565b600082825260208201905092915050565b7f557365206465706f7369745969656c642829206f72206465706f73697445736360008201527f726f772829000000000000000000000000000000000000000000000000000000602082015250565b6000613c0a602583613b9d565b9150613c1582613bae565b604082019050919050565b60006020820190508181036000830152613c3981613bfd565b9050919050565b7f496e76616c69642063616c6c0000000000000000000000000000000000000000600082015250565b6000613c76600c83613b9d565b9150613c8182613c40565b602082019050919050565b60006020820190508181036000830152613ca581613c69565b9050919050565b6000604051905090565b600080fd5b600080fd5b6000819050919050565b613cd381613cc0565b8114613cde57600080fd5b50565b600081359050613cf081613cca565b92915050565b600060208284031215613d0c57613d0b613cb6565b5b6000613d1a84828501613ce1565b91505092915050565b60008115159050919050565b613d3881613d23565b82525050565b6000602082019050613d536000830184613d2f565b92915050565b6000819050919050565b613d6c81613d59565b82525050565b6000602082019050613d876000830184613d63565b92915050565b600081519050919050565b60005b83811015613db6578082015181840152602081019050613d9b565b60008484015250505050565b6000601f19601f8301169050919050565b6000613dde82613d8d565b613de88185613b9d565b9350613df8818560208601613d98565b613e0181613dc2565b840191505092915050565b60006020820190508181036000830152613e268184613dd3565b905092915050565b600073ffffffffffffffffffffffffffffffffffffffff82169050919050565b6000613e5982613e2e565b9050919050565b613e6981613e4e565b8114613e7457600080fd5b50565b600081359050613e8681613e60565b92915050565b600060208284031215613ea257613ea1613cb6565b5b6000613eb084828501613e77565b91505092915050565b6000608082019050613ece6000830187613d63565b613edb6020830186613d63565b613ee86040830185613d63565b613ef56060830184613d2f565b95945050505050565b7f4e487b7100000000000000000000000000000000000000000000000000000000600052602160045260246000fd5b60038110613f3e57613f3d613efe565b5b50565b6000819050613f4f82613f2d565b919050565b6000613f5f82613f41565b9050919050565b613f6f81613f54565b82525050565b6000608082019050613f8a6000830187613f66565b613f976020830186613d63565b613fa46040830185613d63565b613fb16060830184613d63565b95945050505050565b613fc381613d59565b8114613fce57600080fd5b50565b600081359050613fe081613fba565b92915050565b60008060408385031215613ffd57613ffc613cb6565b5b600061400b85828601613e77565b925050602061401c85828601613fd1565b9150509250929050565b600060608201905061403b6000830186613d2f565b6140486020830185613d63565b818103604083015261405a8184613dd3565b9050949350505050565b60006020820190506140796000830184613f66565b92915050565b60008060006060848603121561409857614097613cb6565b5b60006140a686828701613e77565b93505060206140b786828701613e77565b92505060406140c886828701613fd1565b9150509250925092565b600060ff82169050919050565b6140e8816140d2565b82525050565b600060208201905061410360008301846140df565b92915050565b600080fd5b600080fd5b600080fd5b60008083601f84011261412e5761412d614109565b5b8235905067ffffffffffffffff81111561414b5761414a61410e565b5b60208301915083602082028301111561416757614166614113565b5b9250929050565b6000806020838503121561418557614184613cb6565b5b600083013567ffffffffffffffff8111156141a3576141a2613cbb565b5b6141af85828601614118565b92509250509250929050565b6141c481613e4e565b82525050565b60006020820190506141df60008301846141bb565b92915050565b6000602082840312156141fb576141fa613cb6565b5b600061420984828501613fd1565b91505092915050565b6000806040838503121561422957614228613cb6565b5b600061423785828601613e77565b925050602061424885828601613ce1565b9150509250929050565b600080fd5b7f4e487b7100000000000000000000000000000000000000000000000000000000600052604160045260246000fd5b61428f82613dc2565b810181811067ffffffffffffffff821117156142ae576142ad614257565b5b80604052505050565b60006142c1613cac565b90506142cd8282614286565b919050565b600067ffffffffffffffff8211156142ed576142ec614257565b5b6142f682613dc2565b9050602081019050919050565b82818337600083830152505050565b6000614325614320846142d2565b6142b7565b90508281526020810184848401111561434157614340614252565b5b61434c848285614303565b509392505050565b600082601f83011261436957614368614109565b5b8135614379848260208601614312565b91505092915050565b6000806040838503121561439957614398613cb6565b5b60006143a785828601613ce1565b925050602083013567ffffffffffffffff8111156143c8576143c7613cbb565b5b6143d485828601614354565b9150509250929050565b6000602082840312156143f4576143f3613cb6565b5b600082013567ffffffffffffffff81111561441257614411613cbb565b5b61441e84828501614354565b91505092915050565b6000806040838503121561443e5761443d613cb6565b5b600061444c85828601613e77565b925050602061445d85828601613e77565b9150509250929050565b7f4e487b7100000000000000000000000000000000000000000000000000000000600052602260045260246000fd5b600060028204905060018216806144ae57607f821691505b6020821081036144c1576144c0614467565b5b50919050565b7f457363726f77206e6f7420696e2066756e64696e672073746174650000000000600082015250565b60006144fd601b83613b9d565b9150614508826144c7565b602082019050919050565b6000602082019050818103600083015261452c816144f0565b9050919050565b7f4e6f2070656e64696e672063616e63656c6c6174696f6e000000000000000000600082015250565b6000614569601783613b9d565b915061457482614533565b602082019050919050565b600060208201905081810360008301526145988161455c565b9050919050565b7f54696d656c6f636b206e6f742065787069726564000000000000000000000000600082015250565b60006145d5601483613b9d565b91506145e08261459f565b602082019050919050565b60006020820190508181036000830152614604816145c8565b9050919050565b7f496e76616c696420737461746500000000000000000000000000000000000000600082015250565b6000614641600d83613b9d565b915061464c8261460b565b602082019050919050565b6000602082019050818103600083015261467081614634565b9050919050565b60008190508160005260206000209050919050565b6000815461469981614496565b6146a38186613b9d565b945060018216600081146146be57600181146146d457614707565b60ff198316865281151560200286019350614707565b6146dd85614677565b60005b838110156146ff578154818901526001820191506020810190506146e0565b808801955050505b50505092915050565b60006040820190506147256000830185613d63565b8181036020830152614737818461468c565b90509392505050565b7f4e487b7100000000000000000000000000000000000000000000000000000000600052601160045260246000fd5b600061477a82613d59565b915061478583613d59565b925082820390508181111561479d5761479c614740565b5b92915050565b7f457363726f77206e6f742063616e63656c6c6564000000000000000000000000600082015250565b60006147d9601483613b9d565b91506147e4826147a3565b602082019050919050565b60006020820190508181036000830152614808816147cc565b9050919050565b7f41646472657373206e6f7420636f6d706c69616e740000000000000000000000600082015250565b6000614845601583613b9d565b91506148508261480f565b602082019050919050565b6000602082019050818103600083015261487481614838565b9050919050565b7f4e6f7468696e6720746f20726566756e64000000000000000000000000000000600082015250565b60006148b1601183613b9d565b91506148bc8261487b565b602082019050919050565b600060208201905081810360008301526148e0816148a4565b9050919050565b600081905092915050565b50565b60006149026000836148e7565b915061490d826148f2565b600082019050919050565b6000614923826148f5565b9150819050919050565b7f526566756e64206661696c656400000000000000000000000000000000000000600082015250565b6000614963600d83613b9d565b915061496e8261492d565b602082019050919050565b6000602082019050818103600083015261499281614956565b9050919050565b7f4e6f207969656c6420746f20636c61696d000000000000000000000000000000600082015250565b60006149cf601183613b9d565b91506149da82614999565b602082019050919050565b600060208201905081810360008301526149fe816149c2565b9050919050565b7f5969656c6420636c61696d206661696c65640000000000000000000000000000600082015250565b6000614a3b601283613b9d565b9150614a4682614a05565b602082019050919050565b60006020820190508181036000830152614a6a81614a2e565b9050919050565b7f4e6f20746f6b656e73206d696e74656420796574000000000000000000000000600082015250565b6000614aa7601483613b9d565b9150614ab282614a71565b602082019050919050565b60006020820190508181036000830152614ad681614a9a565b9050919050565b7f5a65726f207969656c6400000000000000000000000000000000000000000000600082015250565b6000614b13600a83613b9d565b9150614b1e82614add565b602082019050919050565b60006020820190508181036000830152614b4281614b06565b9050919050565b6000614b5482613d59565b9150614b5f83613d59565b9250828202614b6d81613d59565b91508282048414831517614b8457614b83614740565b5b5092915050565b7f4e487b7100000000000000000000000000000000000000000000000000000000600052601260045260246000fd5b6000614bc582613d59565b9150614bd083613d59565b925082614be057614bdf614b8b565b5b828204905092915050565b6000614bf682613d59565b9150614c0183613d59565b9250828201905080821115614c1957614c18614740565b5b92915050565b6000604082019050614c346000830185613d63565b614c416020830184613d63565b9392505050565b7f457363726f77206e6f742066696e616c697a6564000000000000000000000000600082015250565b6000614c7e601483613b9d565b9150614c8982614c48565b602082019050919050565b60006020820190508181036000830152614cad81614c71565b9050919050565b7f4e6f206465706f73697473000000000000000000000000000000000000000000600082015250565b6000614cea600b83613b9d565b9150614cf582614cb4565b602082019050919050565b60006020820190508181036000830152614d1981614cdd565b9050919050565b7f496e76616c696420746f74616c20726169736564000000000000000000000000600082015250565b6000614d56601483613b9d565b9150614d6182614d20565b602082019050919050565b60006020820190508181036000830152614d8581614d49565b9050919050565b7f4465706f73697420746f6f20736d616c6c20666f7220616e7920746f6b656e73600082015250565b6000614dc2602083613b9d565b9150614dcd82614d8c565b602082019050919050565b60006020820190508181036000830152614df181614db5565b9050919050565b7f4e487b7100000000000000000000000000000000000000000000000000000000600052603260045260246000fd5b6000614e3282613d59565b91507fffffffffffffffffffffffffffffffffffffffffffffffffffffffffffffffff8203614e6457614e63614740565b5b600182019050919050565b7f496e76616c696420746f6b656e00000000000000000000000000000000000000600082015250565b6000614ea5600d83613b9d565b9150614eb082614e6f565b602082019050919050565b60006020820190508181036000830152614ed481614e98565b9050919050565b7f43616e6e6f74207265636f7665722070726f706572747920746f6b656e000000600082015250565b6000614f11601d83613b9d565b9150614f1c82614edb565b602082019050919050565b60006020820190508181036000830152614f4081614f04565b9050919050565b7f4361702065786365656465640000000000000000000000000000000000000000600082015250565b6000614f7d600c83613b9d565b9150614f8882614f47565b602082019050919050565b60006020820190508181036000830152614fac81614f70565b9050919050565b7f5a65726f206465706f7369740000000000000000000000000000000000000000600082015250565b6000614fe9600c83613b9d565b9150614ff482614fb3565b602082019050919050565b6000602082019050818103600083015261501881614fdc565b9050919050565b7f4465706f7369742062656c6f77206d696e696d756d20666f7220746f6b656e73600082015250565b6000615055602083613b9d565b91506150608261501f565b602082019050919050565b6000602082019050818103600083015261508481615048565b9050919050565b7f496e76616c69642077616c6c6574000000000000000000000000000000000000600082015250565b60006150c1600e83613b9d565b91506150cc8261508b565b602082019050919050565b600060208201905081810360008301526150f0816150b4565b9050919050565b7f496e76616c696420686173680000000000000000000000000000000000000000600082015250565b600061512d600c83613b9d565b9150615138826150f7565b602082019050919050565b6000602082019050818103600083015261515c81615120565b9050919050565b7f4e6f2066756e6473207261697365640000000000000000000000000000000000600082015250565b6000615199600f83613b9d565b91506151a482615163565b602082019050919050565b600060208201905081810360008301526151c88161518c565b9050919050565b7f46756e642072656c65617365206661696c656400000000000000000000000000600082015250565b6000615205601383613b9d565b9150615210826151cf565b602082019050919050565b60006020820190508181036000830152615234816151f8565b9050919050565b7f43616e63656c6c6174696f6e20616c72656164792070656e64696e6700000000600082015250565b6000615271601c83613b9d565b915061527c8261523b565b602082019050919050565b600060208201905081810360008301526152a081615264565b9050919050565b60006020601f8301049050919050565b600082821b905092915050565b6000600883026152f47fffffffffffffffffffffffffffffffffffffffffffffffffffffffffffffffff826152b7565b6152fe86836152b7565b95508019841693508086168417925050509392505050565b6000819050919050565b600061533b61533661533184613d59565b615316565b613d59565b9050919050565b6000819050919050565b61535583615320565b61536961536182615342565b8484546152c4565b825550505050565b600090565b61537e615371565b61538981848461534c565b505050565b5b818110156153ad576153a2600082615376565b60018101905061538f565b5050565b601f8211156153f2576153c381614677565b6153cc846152a7565b810160208510156153db578190505b6153ef6153e7856152a7565b83018261538e565b50505b505050565b600082821c905092915050565b6000615415600019846008026153f7565b1980831691505092915050565b600061542e8383615404565b9150826002028217905092915050565b61544782613d8d565b67ffffffffffffffff8111156154605761545f614257565b5b61546a8254614496565b6154758282856153b1565b600060209050601f8311600181146154a85760008415615496578287015190505b6154a08582615422565b865550615508565b601f1984166154b686614677565b60005b828110156154de578489015182556001820191506020850194506020810190506154b9565b868310156154fb57848901516154f7601f891682615404565b8355505b6001600288020188555050505b505050505050565b60006060820190506155256000830186613d63565b81810360208301526155378185613dd3565b90506155466040830184613d63565b949350505050565b7f496e73756666696369656e742062616c616e6365000000000000000000000000600082015250565b6000615584601483613b9d565b915061558f8261554e565b602082019050919050565b600060208201905081810360008301526155b381615577565b9050919050565b7f455448207265636f76657279206661696c656400000000000000000000000000600082015250565b60006155f0601383613b9d565b91506155fb826155ba565b602082019050919050565b6000602082019050818103600083015261561f816155e3565b9050919050565b600060608201905061563b60008301866141bb565b6156486020830185613d63565b6156556040830184613d63565b949350505050565b600060408201905061567260008301856141bb565b61567f6020830184613d63565b9392505050565b7f436f6e7472616374206973207061757365640000000000000000000000000000600082015250565b60006156bc601283613b9d565b91506156c782615686565b602082019050919050565b600060208201905081810360008301526156eb816156af565b9050919050565b7f53656e646572206e6f7420636f6d706c69616e74000000000000000000000000600082015250565b6000615728601483613b9d565b9150615733826156f2565b602082019050919050565b600060208201905081810360008301526157578161571b565b9050919050565b7f5265636569766572206e6f7420636f6d706c69616e7400000000000000000000600082015250565b6000615794601683613b9d565b915061579f8261575e565b602082019050919050565b600060208201905081810360008301526157c381615787565b905091905056fea26469706673582212209a5300bde84af9da89336aeb71932553f804c8cc80ff5f8e49fc0c5e65f1b78b64736f6c63430008140033",
  "linkReferences": {},
  "deployedLinkReferences": {}
}